{
  "abi": [
    {
      "inputs": [
        {
          "internalType": "bytes",
          "name": "data",
          "type": "bytes"
        },
        {
          "internalType": "uint256",
          "name": "start",
          "type": "uint256"
        },
        {
          "internalType": "uint256",
          "name": "end",
          "type": "uint256"
        }
      ],
      "name": "Slice_OutOfBounds",
      "type": "error"
    },
    {
      "inputs": [
        {
          "internalType": "uint256",
          "name": "expected",
          "type": "uint256"
        },
        {
          "internalType": "uint256",
          "name": "received",
          "type": "uint256"
        }
      ],
      "name": "StoreCore_InvalidDataLength",
      "type": "error"
    },
    {
      "inputs": [
        {
          "internalType": "bytes32",
          "name": "tableId",
          "type": "bytes32"
        },
        {
          "internalType": "string",
          "name": "tableIdString",
          "type": "string"
        }
      ],
      "name": "StoreCore_TableNotFound",
      "type": "error"
    },
    {
      "inputs": [],
      "name": "ACCOUNT_FACTORY",
      "outputs": [
        {
          "internalType": "address",
          "name": "",
          "type": "address"
        }
      ],
      "stateMutability": "view",
      "type": "function"
    },
    {
      "inputs": [],
      "name": "AUTH_CONTROLLER",
      "outputs": [
        {
          "internalType": "address",
          "name": "",
          "type": "address"
        }
      ],
      "stateMutability": "view",
      "type": "function"
    },
    {
      "inputs": [
        {
          "components": [
            {
              "internalType": "contract IAuthController",
              "name": "authController",
              "type": "address"
            },
            {
              "internalType": "address",
              "name": "client",
              "type": "address"
            },
            {
              "internalType": "address",
              "name": "world",
              "type": "address"
            },
            {
              "internalType": "contract ILimitCheckerSystem",
              "name": "limitChecker",
              "type": "address"
            },
            {
              "internalType": "bytes",
              "name": "limitData",
              "type": "bytes"
            }
          ],
          "internalType": "struct IAccount.PermissionData",
          "name": "_permissionData",
          "type": "tuple"
        },
        {
          "internalType": "bytes",
          "name": "_signature",
          "type": "bytes"
        }
      ],
      "name": "auth",
      "outputs": [
        {
          "internalType": "uint256",
          "name": "_permissionId",
          "type": "uint256"
        }
      ],
      "stateMutability": "nonpayable",
      "type": "function"
    },
    {
      "inputs": [
        {
          "internalType": "address",
          "name": "_owner",
          "type": "address"
        }
      ],
      "name": "createAccount",
      "outputs": [
        {
          "internalType": "address",
          "name": "_account",
          "type": "address"
        }
      ],
      "stateMutability": "nonpayable",
      "type": "function"
    },
    {
      "inputs": [
        {
          "internalType": "uint256",
          "name": "_permissionId",
          "type": "uint256"
        },
        {
          "internalType": "bytes",
          "name": "_data",
          "type": "bytes"
        }
      ],
      "name": "execute",
      "outputs": [
        {
          "internalType": "bytes",
          "name": "_returnData",
          "type": "bytes"
        }
      ],
      "stateMutability": "nonpayable",
      "type": "function"
    },
    {
      "inputs": [],
      "name": "getAccountSystemAddress",
      "outputs": [
        {
          "internalType": "address",
          "name": "_accountSystemAddress",
          "type": "address"
        }
      ],
      "stateMutability": "view",
      "type": "function"
    },
    {
      "inputs": [],
      "name": "getAuthController",
      "outputs": [
        {
          "internalType": "address",
          "name": "",
          "type": "address"
        }
      ],
      "stateMutability": "view",
      "type": "function"
    },
    {
      "inputs": [
        {
          "internalType": "address",
          "name": "_owner",
          "type": "address"
        },
        {
          "internalType": "uint256",
          "name": "_index",
          "type": "uint256"
        }
      ],
      "name": "ownerAccounts",
      "outputs": [
        {
          "internalType": "address",
          "name": "",
          "type": "address"
        }
      ],
      "stateMutability": "view",
      "type": "function"
    },
    {
      "inputs": [
        {
          "internalType": "uint256",
          "name": "_permissionId",
          "type": "uint256"
        }
      ],
      "name": "revoke",
      "outputs": [],
      "stateMutability": "nonpayable",
      "type": "function"
    },
    {
      "inputs": [
        {
          "internalType": "address",
          "name": "_accountFactory",
          "type": "address"
        }
      ],
      "name": "setAccountFactory",
      "outputs": [],
      "stateMutability": "nonpayable",
      "type": "function"
    }
  ],
  "bytecode": {
    "object": "0x608060405234801561001057600080fd5b5061216c806100206000396000f3fe608060405234801561001057600080fd5b50600436106100be5760003560e01c80639859387b11610076578063b8647e391161005b578063b8647e391461018f578063f0d7a919146101a2578063fe563753146101c057600080fd5b80639859387b14610169578063addc1a761461017c57600080fd5b806320c5429b116100a757806320c5429b1461012e5780634644866e1461014357806359efcb151461014957600080fd5b806305197d10146100c35780630998d8de1461010d575b600080fd5b6000546100e39073ffffffffffffffffffffffffffffffffffffffff1681565b60405173ffffffffffffffffffffffffffffffffffffffff90911681526020015b60405180910390f35b61012061011b3660046114fe565b6101e0565b604051908152602001610104565b61014161013c36600461156f565b610230565b005b306100e3565b61015c610157366004611588565b610278565b604051610104919061161f565b6100e3610177366004611657565b6102c3565b61014161018a366004611657565b610360565b6100e361019d366004611674565b610483565b60015473ffffffffffffffffffffffffffffffffffffffff166100e3565b6001546100e39073ffffffffffffffffffffffffffffffffffffffff1681565b60405162461bcd60e51b815260206004820152600f60248201527f6e6f7420696d706c656d656e746564000000000000000000000000000000000060448201526000906064015b60405180910390fd5b60405162461bcd60e51b815260206004820152600f60248201527f6e6f7420696d706c656d656e74656400000000000000000000000000000000006044820152606401610227565b60405162461bcd60e51b815260206004820152600f60248201527f6e6f7420696d706c656d656e74656400000000000000000000000000000000006044820152606090606401610227565b600080546040517f9859387b00000000000000000000000000000000000000000000000000000000815273ffffffffffffffffffffffffffffffffffffffff848116600483015290911690639859387b906024016020604051808303816000875af1158015610336573d6000803e3d6000fd5b505050506040513d601f19601f8201168201806040525081019061035a91906116a0565b92915050565b60005473ffffffffffffffffffffffffffffffffffffffff16156103c65760405162461bcd60e51b815260206004820152601a60248201527f4163636f756e7453797374656d3a20616c7265616479207365740000000000006044820152606401610227565b600080547fffffffffffffffffffffffff00000000000000000000000000000000000000001673ffffffffffffffffffffffffffffffffffffffff831690811790915561041290610526565b60405161041e906114a8565b604051809103906000f08015801561043a573d6000803e3d6000fd5b50600180547fffffffffffffffffffffffff00000000000000000000000000000000000000001673ffffffffffffffffffffffffffffffffffffffff9290921691909117905550565b600080546040517fb8647e3900000000000000000000000000000000000000000000000000000000815273ffffffffffffffffffffffffffffffffffffffff8581166004830152602482018590529091169063b8647e3990604401602060405180830381865afa1580156104fb573d6000803e3d6000fd5b505050506040513d601f19601f8201168201806040525081019061051f91906116a0565b9392505050565b604080516000808252602082018352818301527f4163636f756e74466163746f7279536900000000000000000000000000000000605082015281518082038301815260608201909252906105c89061057d906116d3565b6040517fffffffffffffffffffffffffffffffffffffffff000000000000000000000000606086901b16602082015283906000906034016040516020818303038152906040526105cc565b5050565b6105d4610665565b156105ea576105e5848484846106e3565b61065f565b6040517f114a7266000000000000000000000000000000000000000000000000000000008152339063114a72669061062c908790879087908790600401611735565b600060405180830381600087803b15801561064657600080fd5b505af115801561065a573d6000803e3d6000fd5b505050505b50505050565b6000303b80820361067857600191505090565b3073ffffffffffffffffffffffffffffffffffffffff1663a5c2f0076040518163ffffffff1660e01b815260040160006040518083038186803b1580156106be57600080fd5b505afa9250505080156106cf575060015b6106db57600091505090565b600191505090565b60006106ee856108d3565b90507fd01f9f1368f831528fc9fe6442366b2b7d957fbfff3bcf7c24d9ab5fe51f8c46858585856040516107259493929190611735565b60405180910390a1600061073886610928565b905060005b81518110156107e957600082828151811061075a5761075a611774565b602002602001015190508073ffffffffffffffffffffffffffffffffffffffff1663469b7ee2898989896040518563ffffffff1660e01b81526004016107a39493929190611735565b600060405180830381600087803b1580156107bd57600080fd5b505af11580156107d1573d6000803e3d6000fd5b505050505080806107e1906117a0565b91505061073d565b5060ff60e883901c8116908516101561080e576108098686848787610a05565b61081b565b61081b8686848787610ab0565b60005b81518110156108ca57600082828151811061083b5761083b611774565b602002602001015190508073ffffffffffffffffffffffffffffffffffffffff16636b3d7d5f898989896040518563ffffffff1660e01b81526004016108849493929190611735565b600060405180830381600087803b15801561089e57600080fd5b505af11580156108b2573d6000803e3d6000fd5b505050505080806108c2906117a0565b91505061081e565b50505050505050565b60006108de82610aeb565b90508061092357816108ef83610bb0565b6040517fd623a70d0000000000000000000000000000000000000000000000000000000081526004016102279291906117ba565b919050565b6040805160018082528183019092526060916000919060208083019080368337019050509050828160008151811061096257610962611774565b602090810291909101810191909152604080517f6d756473746f7265000000000000000000000000000000000000000000000000818401527f486f6f6b73000000000000000000000000000000000000000000000000000000603082015281518082039093018352810190526000906109e6906109de906116d3565b836000610bdb565b90506109fd6109f88260008451610c81565b610d11565b949350505050565b6000610a148460ff8516610d22565b90508151610a328260c5811115610a2d57610a2d6117d3565b610d4e565b14610a8957610a4c8160c5811115610a2d57610a2d6117d3565b82516040517f521b3d3300000000000000000000000000000000000000000000000000000000815260048101929092526024820152604401610227565b6000610a958787610dff565b90506000610aa38686610e55565b905061065a828286610ea9565b6000610ac360ff60e886901c16846117e9565b9050610ad28686838551610ebe565b6000610adf878784610ef0565b90506108ca8184610f49565b604080516001808252818301909252600091829190602080830190803683370190505090508281600081518110610b2457610b24611774565b602090810291909101810191909152604080517f6d756473746f7265000000000000000000000000000000000000000000000000818401527f736368656d61000000000000000000000000000000000000000000000000000060308201528151808203909301835281019052600090610ba690610ba0906116d3565b83610dff565b90506109fd815490565b606081604051602001610bc591815260200190565b6040516020818303038152906040529050919050565b6060610be5610665565b15610bfc57610bf5848484610f55565b905061051f565b6040517fd03edb8c000000000000000000000000000000000000000000000000000000008152339063d03edb8c90610c3c9087908790879060040161180c565b600060405180830381865afa158015610c59573d6000803e3d6000fd5b505050506040513d6000823e601f3d908101601f19168201604052610bf59190810190611838565b6000818311158015610c94575083518211155b610cd0578383836040517f23230fa3000000000000000000000000000000000000000000000000000000008152600401610227939291906118da565b60208401610cde84826118ff565b90506000610cec8585611917565b6fffffffffffffffffffffffffffffffff1660809290921b9190911795945050505050565b6060600061051f8360146000610f79565b6000610d3a83610d338460046118ff565b6008021b90565b60f81c60c581111561051f5761051f6117d3565b6000808260c5811115610d6357610d636117d3565b60ff1690506020811015610d7c5761051f8160016118ff565b6040811015610d9c576020610d928260016118ff565b61051f9190611917565b6060811015610db2576040610d928260016118ff565b60608360c5811115610dc657610dc66117d3565b03610dd45750600192915050565b60618360c5811115610de857610de86117d3565b03610df65750601492915050565b50600092915050565b60007f86425bff6b57326c7859e89024fe4f238ca327a1ae4a230180dd2f0e88aaa7d98383604051602001610e369392919061192e565b60408051601f1981840301815291905280516020909101209392505050565b600080805b8360ff16811015610ea157610e83610e728683610d22565b60c5811115610a2d57610a2d6117d3565b610e8d90836118ff565b915080610e99816117a0565b915050610e5a565b509392505050565b600060208201905061065f84848385516110a2565b6000610eca8585611160565b90506000610ed6825490565b9050610ee68160ff861685611197565b9091555050505050565b60007f86425bff6b57326c7859e89024fe4f238ca327a1ae4a230180dd2f0e88aaa7d9848484604051602001610f29949392919061194d565b60408051601f198184030181529190528051602090910120949350505050565b6105c882600083610ea9565b60606000610f62856108d3565b9050610f7085858584611270565b95945050505050565b60606000610f878560801c90565b90506fffffffffffffffffffffffffffffffff8516600084610fbf57610fae866008611980565b610fba90610100611917565b610fc2565b60005b90506000868381610fd557610fd561199f565b049050610fe287846119b5565b156110555760405162461bcd60e51b815260206004820152603d60248201527f756e7061636b546f41727261793a207061636b65644c656e677468206d75737460448201527f2062652061206d756c7469706c65206f6620656c656d656e7453697a650000006064820152608401610227565b602080820201604051955080860160405250808552600060208601855b83831015611094578051851c8252600192909201916020909101908901611072565b505050505050509392505050565b6020830484019350602083816110ba576110ba61199f565b06925082156111135760208390036000600019600884021c1990506008850281811c91508451811c90508119875416828216178755508183116110fe57505061065f565b6111096001876118ff565b9550509182019190035b6020811061113c578151845561112a6001856118ff565b935060209190910190601f1901611113565b801561065f576000600019600883021c198554845182169119161785555050505050565b60007f86425bff6b57326c7859e89024fe4f238ca327a1ae4a230180dd2f0e88aaa7d98383604051602001610e36939291906119d7565b600083816111a58260c81c90565b905060006111b6878760ff166112a3565b90508085106111da576111c98186611917565b6111d390836118ff565b91506111f1565b6111e48582611917565b6111ee9083611917565b91505b60006111fe876005611980565b6112099060076118ff565b905078ffffffffffffffffffffffffffffffffffffffffffffffffff841660c884901b1793507fffffffffff0000000000000000000000000000000000000000000000000000006008820290811c19851660d888901b90911c175b98975050505050505050565b606060ff60e883901c8116908416101561129757611290858585856112d5565b90506109fd565b61129085858585611335565b6000806112b1836005611980565b6112bc9060076118ff565b90506112ca84826008021b90565b60d81c949350505050565b606060006112e68360ff8616610d22565b905060006112ff8260c5811115610a2d57610a2d6117d3565b9050600061130d8888610dff565b9050600061131b8688610e55565b9050611328828483611380565b9998505050505050505050565b6060600061134a60ff60e885901c16856117e9565b90506000611359878784610ef0565b905060006113748360ff1661136e8a8a6113d8565b906112a3565b905061126482826113e5565b60608267ffffffffffffffff81111561139b5761139b6116bd565b6040519080825280601f01601f1916602001820160405280156113c5576020820181803683370190505b50905060208101610ea1858585846113f3565b600080610ba68484611160565b606061051f83836000611380565b60208204840193506020828161140b5761140b61199f565b069150811561145c5760208290036000600019600883021c1990508554600885021b81198451168282161784525081851161144757505061065f565b6114526001876118ff565b9550509283900392015b6020831061148457835481526114736001856118ff565b9350601f199092019160200161145c565b821561065f576000600019600885021c198251865482169119161782525050505050565b6106ff80611a3883390190565b60008083601f8401126114c757600080fd5b50813567ffffffffffffffff8111156114df57600080fd5b6020830191508360208285010111156114f757600080fd5b9250929050565b60008060006040848603121561151357600080fd5b833567ffffffffffffffff8082111561152b57600080fd5b9085019060a0828803121561153f57600080fd5b9093506020850135908082111561155557600080fd5b50611562868287016114b5565b9497909650939450505050565b60006020828403121561158157600080fd5b5035919050565b60008060006040848603121561159d57600080fd5b83359250602084013567ffffffffffffffff8111156115bb57600080fd5b611562868287016114b5565b60005b838110156115e25781810151838201526020016115ca565b8381111561065f5750506000910152565b6000815180845261160b8160208601602086016115c7565b601f01601f19169290920160200192915050565b60208152600061051f60208301846115f3565b73ffffffffffffffffffffffffffffffffffffffff8116811461165457600080fd5b50565b60006020828403121561166957600080fd5b813561051f81611632565b6000806040838503121561168757600080fd5b823561169281611632565b946020939093013593505050565b6000602082840312156116b257600080fd5b815161051f81611632565b634e487b7160e01b600052604160045260246000fd5b805160208083015191908110156116f4576000198160200360031b1b821691505b50919050565b600081518084526020808501945080840160005b8381101561172a5781518752958201959082019060010161170e565b509495945050505050565b84815260806020820152600061174e60808301866116fa565b60ff85166040840152828103606084015261176981856115f3565b979650505050505050565b634e487b7160e01b600052603260045260246000fd5b634e487b7160e01b600052601160045260246000fd5b600060001982036117b3576117b361178a565b5060010190565b8281526040602082015260006109fd60408301846115f3565b634e487b7160e01b600052602160045260246000fd5b600060ff821660ff8416808210156118035761180361178a565b90039392505050565b83815260606020820152600061182560608301856116fa565b905060ff83166040830152949350505050565b60006020828403121561184a57600080fd5b815167ffffffffffffffff8082111561186257600080fd5b818401915084601f83011261187657600080fd5b815181811115611888576118886116bd565b604051601f8201601f19908116603f011681019083821181831017156118b0576118b06116bd565b816040528281528760208487010111156118c957600080fd5b6117698360208301602088016115c7565b6060815260006118ed60608301866115f3565b60208301949094525060400152919050565b600082198211156119125761191261178a565b500190565b6000828210156119295761192961178a565b500390565b838152826020820152606060408201526000610f7060608301846116fa565b84815283602082015260806040820152600061196c60808301856116fa565b905060ff8316606083015295945050505050565b600081600019048311821515161561199a5761199a61178a565b500290565b634e487b7160e01b600052601260045260246000fd5b6000826119d257634e487b7160e01b600052601260045260246000fd5b500690565b8381528260208201526080604082015260006119f660808301846116fa565b8281036060840152600681527f6c656e677468000000000000000000000000000000000000000000000000000060208201526040810191505094935050505056fe608060405234801561001057600080fd5b506106df806100206000396000f3fe608060405234801561001057600080fd5b50600436106100365760003560e01c8063220003461461003b578063dcc2072e14610061575b600080fd5b61004e610049366004610457565b610084565b6040519081526020015b60405180910390f35b61007461006f3660046104b6565b6100b4565b6040519015158152602001610058565b6000816040516020016100979190610585565b604051602081830303815290604052805190602001209050919050565b600080846040516020016100c89190610585565b60405160208183030381529060405280519060200120905060006101228286868080601f01602080910402602001604051908101604052809392919081815260200183838082843760009201919091525061014a92505050565b73ffffffffffffffffffffffffffffffffffffffff9081169716969096149695505050505050565b6000806000610159858561016e565b91509150610166816101b3565b509392505050565b60008082516041036101a45760208301516040840151606085015160001a6101988782858561036e565b945094505050506101ac565b506000905060025b9250929050565b60008160048111156101c7576101c761067a565b036101cf5750565b60018160048111156101e3576101e361067a565b0361024f576040517f08c379a000000000000000000000000000000000000000000000000000000000815260206004820152601860248201527f45434453413a20696e76616c6964207369676e6174757265000000000000000060448201526064015b60405180910390fd5b60028160048111156102635761026361067a565b036102ca576040517f08c379a000000000000000000000000000000000000000000000000000000000815260206004820152601f60248201527f45434453413a20696e76616c6964207369676e6174757265206c656e677468006044820152606401610246565b60038160048111156102de576102de61067a565b0361036b576040517f08c379a000000000000000000000000000000000000000000000000000000000815260206004820152602260248201527f45434453413a20696e76616c6964207369676e6174757265202773272076616c60448201527f75650000000000000000000000000000000000000000000000000000000000006064820152608401610246565b50565b6000807f7fffffffffffffffffffffffffffffff5d576e7357a4501ddfe92f46681b20a08311156103a55750600090506003610436565b6040805160008082526020820180845289905260ff881692820192909252606081018690526080810185905260019060a0016020604051602081039080840390855afa1580156103f9573d6000803e3d6000fd5b5050604051601f19015191505073ffffffffffffffffffffffffffffffffffffffff811661042f57600060019250925050610436565b9150600090505b94509492505050565b600060a0828403121561045157600080fd5b50919050565b60006020828403121561046957600080fd5b813567ffffffffffffffff81111561048057600080fd5b61048c8482850161043f565b949350505050565b73ffffffffffffffffffffffffffffffffffffffff8116811461036b57600080fd5b600080600080606085870312156104cc57600080fd5b84356104d781610494565b9350602085013567ffffffffffffffff808211156104f457600080fd5b6105008883890161043f565b9450604087013591508082111561051657600080fd5b818701915087601f83011261052a57600080fd5b81358181111561053957600080fd5b88602082850101111561054b57600080fd5b95989497505060200194505050565b818352818160208501375060006020828401015260006020601f19601f840116840101905092915050565b602081526000823561059681610494565b73ffffffffffffffffffffffffffffffffffffffff8082166020850152602085013591506105c382610494565b8082166040850152604085013591506105db82610494565b8082166060850152606085013591506105f382610494565b8082166080850152505060808301357fffffffffffffffffffffffffffffffffffffffffffffffffffffffffffffffe184360301811261063257600080fd5b8301803567ffffffffffffffff81111561064b57600080fd5b80360385131561065a57600080fd5b60a08085015261067160c08501826020850161055a565b95945050505050565b7f4e487b7100000000000000000000000000000000000000000000000000000000600052602160045260246000fdfea26469706673582212206502209d0a6dd438d922298bb4d307c3ca0e44ea1921e97be40f5f2a14c24dd164736f6c634300080d0033a2646970667358221220ef6ad24414b0beae4db5b48f25a14139819f5c804e2e3c6f584a45d865a3ff4164736f6c634300080d0033",
    "linkReferences": {}
  },
  "methodIdentifiers": {
    "ACCOUNT_FACTORY()": "05197d10",
    "AUTH_CONTROLLER()": "fe563753",
    "auth((address,address,address,address,bytes),bytes)": "0998d8de",
    "createAccount(address)": "9859387b",
    "execute(uint256,bytes)": "59efcb15",
    "getAccountSystemAddress()": "4644866e",
    "getAuthController()": "f0d7a919",
    "ownerAccounts(address,uint256)": "b8647e39",
    "revoke(uint256)": "20c5429b",
    "setAccountFactory(address)": "addc1a76"
  },
  "id": 129
}