{
  "abi": [
    {
      "inputs": [
        {
          "internalType": "bytes",
          "name": "data",
          "type": "bytes"
        },
        {
          "internalType": "uint256",
          "name": "start",
          "type": "uint256"
        },
        {
          "internalType": "uint256",
          "name": "end",
          "type": "uint256"
        }
      ],
      "name": "Slice_OutOfBounds",
      "type": "error"
    },
    {
      "inputs": [
        {
          "internalType": "uint256",
          "name": "expected",
          "type": "uint256"
        },
        {
          "internalType": "uint256",
          "name": "received",
          "type": "uint256"
        }
      ],
      "name": "StoreCore_InvalidDataLength",
      "type": "error"
    },
    {
      "inputs": [
        {
          "internalType": "bytes32",
          "name": "tableId",
          "type": "bytes32"
        },
        {
          "internalType": "string",
          "name": "tableIdString",
          "type": "string"
        }
      ],
      "name": "StoreCore_TableNotFound",
      "type": "error"
    },
    {
      "inputs": [],
      "name": "ACCOUNT_FACTORY",
      "outputs": [
        {
          "internalType": "address",
          "name": "",
          "type": "address"
        }
      ],
      "stateMutability": "view",
      "type": "function"
    },
    {
      "inputs": [],
      "name": "AUTH_CONTROLLER",
      "outputs": [
        {
          "internalType": "address",
          "name": "",
          "type": "address"
        }
      ],
      "stateMutability": "view",
      "type": "function"
    },
    {
      "inputs": [
        {
          "components": [
            {
              "internalType": "contract IAuthController",
              "name": "authController",
              "type": "address"
            },
            {
              "internalType": "address",
              "name": "client",
              "type": "address"
            },
            {
              "internalType": "address",
              "name": "world",
              "type": "address"
            },
            {
              "internalType": "contract ILimitCheckerSystem",
              "name": "limitChecker",
              "type": "address"
            },
            {
              "internalType": "bytes",
              "name": "limitData",
              "type": "bytes"
            }
          ],
          "internalType": "struct IAccount.PermissionData",
          "name": "_permissionData",
          "type": "tuple"
        },
        {
          "internalType": "bytes",
          "name": "_signature",
          "type": "bytes"
        }
      ],
      "name": "auth",
      "outputs": [
        {
          "internalType": "uint256",
          "name": "_permissionId",
          "type": "uint256"
        }
      ],
      "stateMutability": "nonpayable",
      "type": "function"
    },
    {
      "inputs": [],
      "name": "createAccount",
      "outputs": [
        {
          "internalType": "address",
          "name": "_account",
          "type": "address"
        }
      ],
      "stateMutability": "nonpayable",
      "type": "function"
    },
    {
      "inputs": [
        {
          "internalType": "uint256",
          "name": "_permissionId",
          "type": "uint256"
        },
        {
          "internalType": "bytes",
          "name": "_data",
          "type": "bytes"
        }
      ],
      "name": "execute",
      "outputs": [
        {
          "internalType": "bytes",
          "name": "_returnData",
          "type": "bytes"
        }
      ],
      "stateMutability": "nonpayable",
      "type": "function"
    },
    {
      "inputs": [],
      "name": "getAccountSystemAddress",
      "outputs": [
        {
          "internalType": "address",
          "name": "_accountSystemAddress",
          "type": "address"
        }
      ],
      "stateMutability": "view",
      "type": "function"
    },
    {
      "inputs": [],
      "name": "getAuthController",
      "outputs": [
        {
          "internalType": "address",
          "name": "",
          "type": "address"
        }
      ],
      "stateMutability": "view",
      "type": "function"
    },
    {
      "inputs": [
        {
          "internalType": "address",
          "name": "_owner",
          "type": "address"
        },
        {
          "internalType": "uint256",
          "name": "_index",
          "type": "uint256"
        }
      ],
      "name": "ownerAccounts",
      "outputs": [
        {
          "internalType": "address",
          "name": "",
          "type": "address"
        }
      ],
      "stateMutability": "view",
      "type": "function"
    },
    {
      "inputs": [
        {
          "internalType": "address",
          "name": "_accountFactory",
          "type": "address"
        }
      ],
      "name": "setAccountFactory",
      "outputs": [],
      "stateMutability": "nonpayable",
      "type": "function"
    }
  ],
  "bytecode": {
    "object": "0x608060405234801561001057600080fd5b50611cca806100206000396000f3fe608060405234801561001057600080fd5b50600436106100a35760003560e01c80639dca362f11610076578063b8647e391161005b578063b8647e391461013c578063f0d7a9191461014f578063fe5637531461016057600080fd5b80639dca362f1461011f578063addc1a761461012757600080fd5b806305197d10146100a85780630998d8de146100d85780634644866e146100f957806359efcb15146100ff575b600080fd5b6000546100bb906001600160a01b031681565b6040516001600160a01b0390911681526020015b60405180910390f35b6100eb6100e6366004611424565b610173565b6040519081526020016100cf565b306100bb565b61011261010d366004611495565b6101c3565b6040516100cf919061152c565b6100bb61020e565b61013a610135366004611557565b6102af565b005b6100bb61014a366004611574565b6103ab565b6001546001600160a01b03166100bb565b6001546100bb906001600160a01b031681565b60405162461bcd60e51b815260206004820152600f60248201527f6e6f7420696d706c656d656e746564000000000000000000000000000000000060448201526000906064015b60405180910390fd5b60405162461bcd60e51b815260206004820152600f60248201527f6e6f7420696d706c656d656e746564000000000000000000000000000000000060448201526060906064016101ba565b600080546001600160a01b0316639859387b610228610441565b6040517fffffffff0000000000000000000000000000000000000000000000000000000060e084901b1681526001600160a01b0390911660048201526024016020604051808303816000875af1158015610286573d6000803e3d6000fd5b505050506040513d601f19601f820116820180604052508101906102aa91906115a0565b905090565b6000546001600160a01b0316156103085760405162461bcd60e51b815260206004820152601a60248201527f4163636f756e7453797374656d3a20616c72656164792073657400000000000060448201526064016101ba565b600080547fffffffffffffffffffffffff0000000000000000000000000000000000000000166001600160a01b03831690811790915561034790610473565b604051610353906113ce565b604051809103906000f08015801561036f573d6000803e3d6000fd5b50600180547fffffffffffffffffffffffff0000000000000000000000000000000000000000166001600160a01b039290921691909117905550565b600080546040517fb8647e390000000000000000000000000000000000000000000000000000000081526001600160a01b038581166004830152602482018590529091169063b8647e3990604401602060405180830381865afa158015610416573d6000803e3d6000fd5b505050506040513d601f19601f8201168201806040525081019061043a91906115a0565b9392505050565b7fffffffffffffffffffffffffffffffffffffffffffffffffffffffffffffffec36013560601c806104705750335b90565b604080516000808252602082018352818301527f4163636f756e74466163746f727953690000000000000000000000000000000060508201528151808203830181526060820190925290610515906104ca906115d3565b6040517fffffffffffffffffffffffffffffffffffffffff000000000000000000000000606086901b1660208201528390600090603401604051602081830303815290604052610519565b5050565b6105216105b2565b156105375761053284848484610623565b6105ac565b6040517f114a7266000000000000000000000000000000000000000000000000000000008152339063114a726690610579908790879087908790600401611635565b600060405180830381600087803b15801561059357600080fd5b505af11580156105a7573d6000803e3d6000fd5b505050505b50505050565b6000303b8082036105c557600191505090565b306001600160a01b031663a5c2f0076040518163ffffffff1660e01b815260040160006040518083038186803b1580156105fe57600080fd5b505afa92505050801561060f575060015b61061b57600091505090565b600191505090565b600061062e856107f9565b90507fd01f9f1368f831528fc9fe6442366b2b7d957fbfff3bcf7c24d9ab5fe51f8c46858585856040516106659493929190611635565b60405180910390a160006106788661084e565b905060005b815181101561071c57600082828151811061069a5761069a611674565b60200260200101519050806001600160a01b031663469b7ee2898989896040518563ffffffff1660e01b81526004016106d69493929190611635565b600060405180830381600087803b1580156106f057600080fd5b505af1158015610704573d6000803e3d6000fd5b50505050508080610714906116a0565b91505061067d565b5060ff60e883901c811690851610156107415761073c868684878761092b565b61074e565b61074e86868487876109d6565b60005b81518110156107f057600082828151811061076e5761076e611674565b60200260200101519050806001600160a01b0316636b3d7d5f898989896040518563ffffffff1660e01b81526004016107aa9493929190611635565b600060405180830381600087803b1580156107c457600080fd5b505af11580156107d8573d6000803e3d6000fd5b505050505080806107e8906116a0565b915050610751565b50505050505050565b600061080482610a11565b905080610849578161081583610ad6565b6040517fd623a70d0000000000000000000000000000000000000000000000000000000081526004016101ba9291906116ba565b919050565b6040805160018082528183019092526060916000919060208083019080368337019050509050828160008151811061088857610888611674565b602090810291909101810191909152604080517f6d756473746f7265000000000000000000000000000000000000000000000000818401527f486f6f6b730000000000000000000000000000000000000000000000000000006030820152815180820390930183528101905260009061090c90610904906115d3565b836000610b01565b905061092361091e8260008451610ba7565b610c37565b949350505050565b600061093a8460ff8516610c48565b905081516109588260c5811115610953576109536116d3565b610c74565b146109af576109728160c5811115610953576109536116d3565b82516040517f521b3d33000000000000000000000000000000000000000000000000000000008152600481019290925260248201526044016101ba565b60006109bb8787610d25565b905060006109c98686610d7b565b90506105a7828286610dcf565b60006109e960ff60e886901c16846116e9565b90506109f88686838551610de4565b6000610a05878784610e16565b90506107f08184610e6f565b604080516001808252818301909252600091829190602080830190803683370190505090508281600081518110610a4a57610a4a611674565b602090810291909101810191909152604080517f6d756473746f7265000000000000000000000000000000000000000000000000818401527f736368656d61000000000000000000000000000000000000000000000000000060308201528151808203909301835281019052600090610acc90610ac6906115d3565b83610d25565b9050610923815490565b606081604051602001610aeb91815260200190565b6040516020818303038152906040529050919050565b6060610b0b6105b2565b15610b2257610b1b848484610e7b565b905061043a565b6040517fd03edb8c000000000000000000000000000000000000000000000000000000008152339063d03edb8c90610b629087908790879060040161170c565b600060405180830381865afa158015610b7f573d6000803e3d6000fd5b505050506040513d6000823e601f3d908101601f19168201604052610b1b9190810190611738565b6000818311158015610bba575083518211155b610bf6578383836040517f23230fa30000000000000000000000000000000000000000000000000000000081526004016101ba939291906117da565b60208401610c0484826117ff565b90506000610c128585611817565b6fffffffffffffffffffffffffffffffff1660809290921b9190911795945050505050565b6060600061043a8360146000610e9f565b6000610c6083610c598460046117ff565b6008021b90565b60f81c60c581111561043a5761043a6116d3565b6000808260c5811115610c8957610c896116d3565b60ff1690506020811015610ca25761043a8160016117ff565b6040811015610cc2576020610cb88260016117ff565b61043a9190611817565b6060811015610cd8576040610cb88260016117ff565b60608360c5811115610cec57610cec6116d3565b03610cfa5750600192915050565b60618360c5811115610d0e57610d0e6116d3565b03610d1c5750601492915050565b50600092915050565b60007f86425bff6b57326c7859e89024fe4f238ca327a1ae4a230180dd2f0e88aaa7d98383604051602001610d5c9392919061182e565b60408051601f1981840301815291905280516020909101209392505050565b600080805b8360ff16811015610dc757610da9610d988683610c48565b60c5811115610953576109536116d3565b610db390836117ff565b915080610dbf816116a0565b915050610d80565b509392505050565b60006020820190506105ac8484838551610fc8565b6000610df08585611086565b90506000610dfc825490565b9050610e0c8160ff8616856110bd565b9091555050505050565b60007f86425bff6b57326c7859e89024fe4f238ca327a1ae4a230180dd2f0e88aaa7d9848484604051602001610e4f949392919061184d565b60408051601f198184030181529190528051602090910120949350505050565b61051582600083610dcf565b60606000610e88856107f9565b9050610e9685858584611196565b95945050505050565b60606000610ead8560801c90565b90506fffffffffffffffffffffffffffffffff8516600084610ee557610ed4866008611880565b610ee090610100611817565b610ee8565b60005b90506000868381610efb57610efb61189f565b049050610f0887846118b5565b15610f7b5760405162461bcd60e51b815260206004820152603d60248201527f756e7061636b546f41727261793a207061636b65644c656e677468206d75737460448201527f2062652061206d756c7469706c65206f6620656c656d656e7453697a6500000060648201526084016101ba565b602080820201604051955080860160405250808552600060208601855b83831015610fba578051851c8252600192909201916020909101908901610f98565b505050505050509392505050565b602083048401935060208381610fe057610fe061189f565b06925082156110395760208390036000600019600884021c1990506008850281811c91508451811c90508119875416828216178755508183116110245750506105ac565b61102f6001876117ff565b9550509182019190035b6020811061106257815184556110506001856117ff565b935060209190910190601f1901611039565b80156105ac576000600019600883021c198554845182169119161785555050505050565b60007f86425bff6b57326c7859e89024fe4f238ca327a1ae4a230180dd2f0e88aaa7d98383604051602001610d5c939291906118d7565b600083816110cb8260c81c90565b905060006110dc878760ff166111c9565b9050808510611100576110ef8186611817565b6110f990836117ff565b9150611117565b61110a8582611817565b6111149083611817565b91505b6000611124876005611880565b61112f9060076117ff565b905078ffffffffffffffffffffffffffffffffffffffffffffffffff841660c884901b1793507fffffffffff0000000000000000000000000000000000000000000000000000006008820290811c19851660d888901b90911c175b98975050505050505050565b606060ff60e883901c811690841610156111bd576111b6858585856111fb565b9050610923565b6111b68585858561125b565b6000806111d7836005611880565b6111e29060076117ff565b90506111f084826008021b90565b60d81c949350505050565b6060600061120c8360ff8616610c48565b905060006112258260c5811115610953576109536116d3565b905060006112338888610d25565b905060006112418688610d7b565b905061124e8284836112a6565b9998505050505050505050565b6060600061127060ff60e885901c16856116e9565b9050600061127f878784610e16565b9050600061129a8360ff166112948a8a6112fe565b906111c9565b905061118a828261130b565b60608267ffffffffffffffff8111156112c1576112c16115bd565b6040519080825280601f01601f1916602001820160405280156112eb576020820181803683370190505b50905060208101610dc785858584611319565b600080610acc8484611086565b606061043a838360006112a6565b6020820484019350602082816113315761133161189f565b06915081156113825760208290036000600019600883021c1990508554600885021b81198451168282161784525081851161136d5750506105ac565b6113786001876117ff565b9550509283900392015b602083106113aa57835481526113996001856117ff565b9350601f1990920191602001611382565b82156105ac576000600019600885021c198251865482169119161782525050505050565b61035d8061193883390190565b60008083601f8401126113ed57600080fd5b50813567ffffffffffffffff81111561140557600080fd5b60208301915083602082850101111561141d57600080fd5b9250929050565b60008060006040848603121561143957600080fd5b833567ffffffffffffffff8082111561145157600080fd5b9085019060a0828803121561146557600080fd5b9093506020850135908082111561147b57600080fd5b50611488868287016113db565b9497909650939450505050565b6000806000604084860312156114aa57600080fd5b83359250602084013567ffffffffffffffff8111156114c857600080fd5b611488868287016113db565b60005b838110156114ef5781810151838201526020016114d7565b838111156105ac5750506000910152565b600081518084526115188160208601602086016114d4565b601f01601f19169290920160200192915050565b60208152600061043a6020830184611500565b6001600160a01b038116811461155457600080fd5b50565b60006020828403121561156957600080fd5b813561043a8161153f565b6000806040838503121561158757600080fd5b82356115928161153f565b946020939093013593505050565b6000602082840312156115b257600080fd5b815161043a8161153f565b634e487b7160e01b600052604160045260246000fd5b805160208083015191908110156115f4576000198160200360031b1b821691505b50919050565b600081518084526020808501945080840160005b8381101561162a5781518752958201959082019060010161160e565b509495945050505050565b84815260806020820152600061164e60808301866115fa565b60ff8516604084015282810360608401526116698185611500565b979650505050505050565b634e487b7160e01b600052603260045260246000fd5b634e487b7160e01b600052601160045260246000fd5b600060001982036116b3576116b361168a565b5060010190565b8281526040602082015260006109236040830184611500565b634e487b7160e01b600052602160045260246000fd5b600060ff821660ff8416808210156117035761170361168a565b90039392505050565b83815260606020820152600061172560608301856115fa565b905060ff83166040830152949350505050565b60006020828403121561174a57600080fd5b815167ffffffffffffffff8082111561176257600080fd5b818401915084601f83011261177657600080fd5b815181811115611788576117886115bd565b604051601f8201601f19908116603f011681019083821181831017156117b0576117b06115bd565b816040528281528760208487010111156117c957600080fd5b6116698360208301602088016114d4565b6060815260006117ed6060830186611500565b60208301949094525060400152919050565b600082198211156118125761181261168a565b500190565b6000828210156118295761182961168a565b500390565b838152826020820152606060408201526000610e9660608301846115fa565b84815283602082015260806040820152600061186c60808301856115fa565b905060ff8316606083015295945050505050565b600081600019048311821515161561189a5761189a61168a565b500290565b634e487b7160e01b600052601260045260246000fd5b6000826118d257634e487b7160e01b600052601260045260246000fd5b500690565b8381528260208201526080604082015260006118f660808301846115fa565b8281036060840152600681527f6c656e677468000000000000000000000000000000000000000000000000000060208201526040810191505094935050505056fe608060405234801561001057600080fd5b5061033d806100206000396000f3fe608060405234801561001057600080fd5b50600436106100365760003560e01c80630998d8de1461003b5780632200034614610067575b600080fd5b6100526100493660046100d0565b60019392505050565b60405190151581526020015b60405180910390f35b61007a610075366004610167565b610088565b60405190815260200161005e565b60008160405160200161009b9190610212565b604051602081830303815290604052805190602001209050919050565b600060a082840312156100ca57600080fd5b50919050565b6000806000604084860312156100e557600080fd5b833567ffffffffffffffff808211156100fd57600080fd5b610109878388016100b8565b9450602086013591508082111561011f57600080fd5b818601915086601f83011261013357600080fd5b81358181111561014257600080fd5b87602082850101111561015457600080fd5b6020830194508093505050509250925092565b60006020828403121561017957600080fd5b813567ffffffffffffffff81111561019057600080fd5b61019c848285016100b8565b949350505050565b73ffffffffffffffffffffffffffffffffffffffff811681146101c657600080fd5b50565b8183528181602085013750600060208284010152600060207fffffffffffffffffffffffffffffffffffffffffffffffffffffffffffffffe0601f840116840101905092915050565b6020815260008235610223816101a4565b73ffffffffffffffffffffffffffffffffffffffff808216602085015260208501359150610250826101a4565b808216604085015260408501359150610268826101a4565b808216606085015260608501359150610280826101a4565b8082166080850152505060808301357fffffffffffffffffffffffffffffffffffffffffffffffffffffffffffffffe18436030181126102bf57600080fd5b8301803567ffffffffffffffff8111156102d857600080fd5b8036038513156102e757600080fd5b60a0808501526102fe60c0850182602085016101c9565b9594505050505056fea26469706673582212201ebe930b7b9d38bce405afc84300e4ba66806eb73cfaae9b766b6c6060162b0864736f6c634300080d0033a2646970667358221220d6bd7887be099ba78f047386ab86a1a96ae9833748a2b11eaeaf10d6bbd6ab4c64736f6c634300080d0033",
    "linkReferences": {}
  },
  "methodIdentifiers": {
    "ACCOUNT_FACTORY()": "05197d10",
    "AUTH_CONTROLLER()": "fe563753",
    "auth((address,address,address,address,bytes),bytes)": "0998d8de",
    "createAccount()": "9dca362f",
    "execute(uint256,bytes)": "59efcb15",
    "getAccountSystemAddress()": "4644866e",
    "getAuthController()": "f0d7a919",
    "ownerAccounts(address,uint256)": "b8647e39",
    "setAccountFactory(address)": "addc1a76"
  },
  "id": 129
}