{
  "abi": [
    {
      "inputs": [
        {
          "internalType": "bytes",
          "name": "data",
          "type": "bytes"
        },
        {
          "internalType": "uint256",
          "name": "start",
          "type": "uint256"
        },
        {
          "internalType": "uint256",
          "name": "end",
          "type": "uint256"
        }
      ],
      "name": "Slice_OutOfBounds",
      "type": "error"
    },
    {
      "inputs": [
        {
          "internalType": "uint256",
          "name": "expected",
          "type": "uint256"
        },
        {
          "internalType": "uint256",
          "name": "received",
          "type": "uint256"
        }
      ],
      "name": "StoreCore_InvalidDataLength",
      "type": "error"
    },
    {
      "inputs": [
        {
          "internalType": "bytes32",
          "name": "tableId",
          "type": "bytes32"
        },
        {
          "internalType": "string",
          "name": "tableIdString",
          "type": "string"
        }
      ],
      "name": "StoreCore_TableNotFound",
      "type": "error"
    },
    {
      "inputs": [],
      "name": "ACCOUNT_FACTORY",
      "outputs": [
        {
          "internalType": "address",
          "name": "",
          "type": "address"
        }
      ],
      "stateMutability": "view",
      "type": "function"
    },
    {
      "inputs": [],
      "name": "createAccount",
      "outputs": [
        {
          "internalType": "address",
          "name": "_account",
          "type": "address"
        }
      ],
      "stateMutability": "nonpayable",
      "type": "function"
    },
    {
      "inputs": [
        {
          "internalType": "address",
          "name": "_owner",
          "type": "address"
        },
        {
          "internalType": "uint256",
          "name": "_index",
          "type": "uint256"
        }
      ],
      "name": "ownerAccounts",
      "outputs": [
        {
          "internalType": "address",
          "name": "",
          "type": "address"
        }
      ],
      "stateMutability": "view",
      "type": "function"
    },
    {
      "inputs": [
        {
          "internalType": "address",
          "name": "_accountFactory",
          "type": "address"
        }
      ],
      "name": "setAccountFactory",
      "outputs": [],
      "stateMutability": "nonpayable",
      "type": "function"
    }
  ],
  "bytecode": {
    "object": "0x608060405234801561001057600080fd5b5061175a806100206000396000f3fe608060405234801561001057600080fd5b506004361061004c5760003560e01c806305197d10146100515780639dca362f1461009a578063addc1a76146100a2578063b8647e39146100b7575b600080fd5b6000546100719073ffffffffffffffffffffffffffffffffffffffff1681565b60405173ffffffffffffffffffffffffffffffffffffffff909116815260200160405180910390f35b6100716100ca565b6100b56100b03660046112ec565b610185565b005b6100716100c5366004611309565b610259565b6000805473ffffffffffffffffffffffffffffffffffffffff16639859387b6100f16102fc565b6040517fffffffff0000000000000000000000000000000000000000000000000000000060e084901b16815273ffffffffffffffffffffffffffffffffffffffff90911660048201526024016020604051808303816000875af115801561015c573d6000803e3d6000fd5b505050506040513d601f19601f820116820180604052508101906101809190611335565b905090565b60005473ffffffffffffffffffffffffffffffffffffffff161561020a576040517f08c379a000000000000000000000000000000000000000000000000000000000815260206004820152601a60248201527f4163636f756e7453797374656d3a20616c72656164792073657400000000000060448201526064015b60405180910390fd5b600080547fffffffffffffffffffffffff00000000000000000000000000000000000000001673ffffffffffffffffffffffffffffffffffffffff83169081179091556102569061032e565b50565b600080546040517fb8647e3900000000000000000000000000000000000000000000000000000000815273ffffffffffffffffffffffffffffffffffffffff8581166004830152602482018590529091169063b8647e3990604401602060405180830381865afa1580156102d1573d6000803e3d6000fd5b505050506040513d601f19601f820116820180604052508101906102f59190611335565b9392505050565b7fffffffffffffffffffffffffffffffffffffffffffffffffffffffffffffffec36013560601c8061032b5750335b90565b604080516000808252602082018352818301527f4163636f756e74466163746f7279536900000000000000000000000000000000605082015281518082038301815260608201909252906103d09061038590611368565b6040517fffffffffffffffffffffffffffffffffffffffff000000000000000000000000606086901b16602082015283906000906034016040516020818303038152906040526103d4565b5050565b6103dc61046d565b156103f2576103ed848484846104eb565b610467565b6040517f114a7266000000000000000000000000000000000000000000000000000000008152339063114a726690610434908790879087908790600401611422565b600060405180830381600087803b15801561044e57600080fd5b505af1158015610462573d6000803e3d6000fd5b505050505b50505050565b6000303b80820361048057600191505090565b3073ffffffffffffffffffffffffffffffffffffffff1663a5c2f0076040518163ffffffff1660e01b815260040160006040518083038186803b1580156104c657600080fd5b505afa9250505080156104d7575060015b6104e357600091505090565b600191505090565b60006104f6856106db565b90507fd01f9f1368f831528fc9fe6442366b2b7d957fbfff3bcf7c24d9ab5fe51f8c468585858560405161052d9493929190611422565b60405180910390a1600061054086610730565b905060005b81518110156105f157600082828151811061056257610562611461565b602002602001015190508073ffffffffffffffffffffffffffffffffffffffff1663469b7ee2898989896040518563ffffffff1660e01b81526004016105ab9493929190611422565b600060405180830381600087803b1580156105c557600080fd5b505af11580156105d9573d6000803e3d6000fd5b505050505080806105e99061148d565b915050610545565b5060ff60e883901c8116908516101561061657610611868684878761080d565b610623565b61062386868487876108b8565b60005b81518110156106d257600082828151811061064357610643611461565b602002602001015190508073ffffffffffffffffffffffffffffffffffffffff16636b3d7d5f898989896040518563ffffffff1660e01b815260040161068c9493929190611422565b600060405180830381600087803b1580156106a657600080fd5b505af11580156106ba573d6000803e3d6000fd5b505050505080806106ca9061148d565b915050610626565b50505050505050565b60006106e6826108f3565b90508061072b57816106f7836109b8565b6040517fd623a70d0000000000000000000000000000000000000000000000000000000081526004016102019291906114a7565b919050565b6040805160018082528183019092526060916000919060208083019080368337019050509050828160008151811061076a5761076a611461565b602090810291909101810191909152604080517f6d756473746f7265000000000000000000000000000000000000000000000000818401527f486f6f6b73000000000000000000000000000000000000000000000000000000603082015281518082039093018352810190526000906107ee906107e690611368565b8360006109e3565b90506108056108008260008451610a89565b610b19565b949350505050565b600061081c8460ff8516610b2a565b9050815161083a8260c5811115610835576108356114c0565b610b56565b14610891576108548160c5811115610835576108356114c0565b82516040517f521b3d3300000000000000000000000000000000000000000000000000000000815260048101929092526024820152604401610201565b600061089d8787610c07565b905060006108ab8686610c5d565b9050610462828286610cb1565b60006108cb60ff60e886901c16846114d6565b90506108da8686838551610cc6565b60006108e7878784610cf8565b90506106d28184610d51565b60408051600180825281830190925260009182919060208083019080368337019050509050828160008151811061092c5761092c611461565b602090810291909101810191909152604080517f6d756473746f7265000000000000000000000000000000000000000000000000818401527f736368656d610000000000000000000000000000000000000000000000000000603082015281518082039093018352810190526000906109ae906109a890611368565b83610c07565b9050610805815490565b6060816040516020016109cd91815260200190565b6040516020818303038152906040529050919050565b60606109ed61046d565b15610a04576109fd848484610d5d565b90506102f5565b6040517fd03edb8c000000000000000000000000000000000000000000000000000000008152339063d03edb8c90610a44908790879087906004016114f9565b600060405180830381865afa158015610a61573d6000803e3d6000fd5b505050506040513d6000823e601f3d908101601f191682016040526109fd9190810190611525565b6000818311158015610a9c575083518211155b610ad8578383836040517f23230fa3000000000000000000000000000000000000000000000000000000008152600401610201939291906115c7565b60208401610ae684826115ec565b90506000610af48585611604565b6fffffffffffffffffffffffffffffffff1660809290921b9190911795945050505050565b606060006102f58360146000610d81565b6000610b4283610b3b8460046115ec565b6008021b90565b60f81c60c58111156102f5576102f56114c0565b6000808260c5811115610b6b57610b6b6114c0565b60ff1690506020811015610b84576102f58160016115ec565b6040811015610ba4576020610b9a8260016115ec565b6102f59190611604565b6060811015610bba576040610b9a8260016115ec565b60608360c5811115610bce57610bce6114c0565b03610bdc5750600192915050565b60618360c5811115610bf057610bf06114c0565b03610bfe5750601492915050565b50600092915050565b60007f86425bff6b57326c7859e89024fe4f238ca327a1ae4a230180dd2f0e88aaa7d98383604051602001610c3e9392919061161b565b60408051601f1981840301815291905280516020909101209392505050565b600080805b8360ff16811015610ca957610c8b610c7a8683610b2a565b60c5811115610835576108356114c0565b610c9590836115ec565b915080610ca18161148d565b915050610c62565b509392505050565b60006020820190506104678484838551610ec4565b6000610cd28585610f82565b90506000610cde825490565b9050610cee8160ff861685610fb9565b9091555050505050565b60007f86425bff6b57326c7859e89024fe4f238ca327a1ae4a230180dd2f0e88aaa7d9848484604051602001610d31949392919061163a565b60408051601f198184030181529190528051602090910120949350505050565b6103d082600083610cb1565b60606000610d6a856106db565b9050610d7885858584611092565b95945050505050565b60606000610d8f8560801c90565b90506fffffffffffffffffffffffffffffffff8516600084610dc757610db686600861166d565b610dc290610100611604565b610dca565b60005b90506000868381610ddd57610ddd61168c565b049050610dea87846116a2565b15610e77576040517f08c379a000000000000000000000000000000000000000000000000000000000815260206004820152603d60248201527f756e7061636b546f41727261793a207061636b65644c656e677468206d75737460448201527f2062652061206d756c7469706c65206f6620656c656d656e7453697a650000006064820152608401610201565b602080820201604051955080860160405250808552600060208601855b83831015610eb6578051851c8252600192909201916020909101908901610e94565b505050505050509392505050565b602083048401935060208381610edc57610edc61168c565b0692508215610f355760208390036000600019600884021c1990506008850281811c91508451811c9050811987541682821617875550818311610f20575050610467565b610f2b6001876115ec565b9550509182019190035b60208110610f5e5781518455610f4c6001856115ec565b935060209190910190601f1901610f35565b8015610467576000600019600883021c198554845182169119161785555050505050565b60007f86425bff6b57326c7859e89024fe4f238ca327a1ae4a230180dd2f0e88aaa7d98383604051602001610c3e939291906116c4565b60008381610fc78260c81c90565b90506000610fd8878760ff166110c5565b9050808510610ffc57610feb8186611604565b610ff590836115ec565b9150611013565b6110068582611604565b6110109083611604565b91505b600061102087600561166d565b61102b9060076115ec565b905078ffffffffffffffffffffffffffffffffffffffffffffffffff841660c884901b1793507fffffffffff0000000000000000000000000000000000000000000000000000006008820290811c19851660d888901b90911c175b98975050505050505050565b606060ff60e883901c811690841610156110b9576110b2858585856110f7565b9050610805565b6110b285858585611157565b6000806110d383600561166d565b6110de9060076115ec565b90506110ec84826008021b90565b60d81c949350505050565b606060006111088360ff8616610b2a565b905060006111218260c5811115610835576108356114c0565b9050600061112f8888610c07565b9050600061113d8688610c5d565b905061114a8284836111a2565b9998505050505050505050565b6060600061116c60ff60e885901c16856114d6565b9050600061117b878784610cf8565b905060006111968360ff166111908a8a6111fa565b906110c5565b90506110868282611207565b60608267ffffffffffffffff8111156111bd576111bd611352565b6040519080825280601f01601f1916602001820160405280156111e7576020820181803683370190505b50905060208101610ca985858584611215565b6000806109ae8484610f82565b60606102f5838360006111a2565b60208204840193506020828161122d5761122d61168c565b069150811561127e5760208290036000600019600883021c1990508554600885021b811984511682821617845250818511611269575050610467565b6112746001876115ec565b9550509283900392015b602083106112a657835481526112956001856115ec565b9350601f199092019160200161127e565b8215610467576000600019600885021c198251865482169119161782525050505050565b73ffffffffffffffffffffffffffffffffffffffff8116811461025657600080fd5b6000602082840312156112fe57600080fd5b81356102f5816112ca565b6000806040838503121561131c57600080fd5b8235611327816112ca565b946020939093013593505050565b60006020828403121561134757600080fd5b81516102f5816112ca565b634e487b7160e01b600052604160045260246000fd5b80516020808301519190811015611389576000198160200360031b1b821691505b50919050565b600081518084526020808501945080840160005b838110156113bf578151875295820195908201906001016113a3565b509495945050505050565b60005b838110156113e55781810151838201526020016113cd565b838111156104675750506000910152565b6000815180845261140e8160208601602086016113ca565b601f01601f19169290920160200192915050565b84815260806020820152600061143b608083018661138f565b60ff85166040840152828103606084015261145681856113f6565b979650505050505050565b634e487b7160e01b600052603260045260246000fd5b634e487b7160e01b600052601160045260246000fd5b600060001982036114a0576114a0611477565b5060010190565b82815260406020820152600061080560408301846113f6565b634e487b7160e01b600052602160045260246000fd5b600060ff821660ff8416808210156114f0576114f0611477565b90039392505050565b838152606060208201526000611512606083018561138f565b905060ff83166040830152949350505050565b60006020828403121561153757600080fd5b815167ffffffffffffffff8082111561154f57600080fd5b818401915084601f83011261156357600080fd5b81518181111561157557611575611352565b604051601f8201601f19908116603f0116810190838211818310171561159d5761159d611352565b816040528281528760208487010111156115b657600080fd5b6114568360208301602088016113ca565b6060815260006115da60608301866113f6565b60208301949094525060400152919050565b600082198211156115ff576115ff611477565b500190565b60008282101561161657611616611477565b500390565b838152826020820152606060408201526000610d78606083018461138f565b848152836020820152608060408201526000611659608083018561138f565b905060ff8316606083015295945050505050565b600081600019048311821515161561168757611687611477565b500290565b634e487b7160e01b600052601260045260246000fd5b6000826116bf57634e487b7160e01b600052601260045260246000fd5b500690565b8381528260208201526080604082015260006116e3608083018461138f565b8281036060840152600681527f6c656e677468000000000000000000000000000000000000000000000000000060208201526040810191505094935050505056fea2646970667358221220eb60cb242ead03b0d839008ada5e365681f66ef45eaab9955896ae717e5b632064736f6c634300080d0033",
    "linkReferences": {}
  },
  "methodIdentifiers": {
    "ACCOUNT_FACTORY()": "05197d10",
    "createAccount()": "9dca362f",
    "ownerAccounts(address,uint256)": "b8647e39",
    "setAccountFactory(address)": "addc1a76"
  },
  "id": 109
}