{
  "abi": [
    {
      "inputs": [],
      "stateMutability": "nonpayable",
      "type": "constructor"
    },
    {
      "inputs": [
        {
          "internalType": "uint256",
          "name": "length",
          "type": "uint256"
        }
      ],
      "name": "SchemaLib_InvalidLength",
      "type": "error"
    },
    {
      "inputs": [],
      "name": "SchemaLib_StaticTypeAfterDynamicType",
      "type": "error"
    },
    {
      "inputs": [
        {
          "internalType": "bytes",
          "name": "data",
          "type": "bytes"
        },
        {
          "internalType": "uint256",
          "name": "start",
          "type": "uint256"
        },
        {
          "internalType": "uint256",
          "name": "end",
          "type": "uint256"
        }
      ],
      "name": "Slice_OutOfBounds",
      "type": "error"
    },
    {
      "inputs": [
        {
          "internalType": "uint256",
          "name": "expected",
          "type": "uint256"
        },
        {
          "internalType": "uint256",
          "name": "received",
          "type": "uint256"
        }
      ],
      "name": "StoreCore_InvalidDataLength",
      "type": "error"
    },
    {
      "inputs": [
        {
          "internalType": "bytes32",
          "name": "tableId",
          "type": "bytes32"
        },
        {
          "internalType": "string",
          "name": "tableIdString",
          "type": "string"
        }
      ],
      "name": "StoreCore_TableNotFound",
      "type": "error"
    },
    {
      "inputs": [
        {
          "internalType": "bytes32",
          "name": "_gameId",
          "type": "bytes32"
        }
      ],
      "name": "acceptGame",
      "outputs": [
        {
          "internalType": "bool",
          "name": "_playerConsent",
          "type": "bool"
        }
      ],
      "stateMutability": "nonpayable",
      "type": "function"
    },
    {
      "inputs": [
        {
          "internalType": "uint256",
          "name": "_permissionId",
          "type": "uint256"
        },
        {
          "components": [
            {
              "internalType": "contract IAuthController",
              "name": "authController",
              "type": "address"
            },
            {
              "internalType": "address",
              "name": "client",
              "type": "address"
            },
            {
              "internalType": "address",
              "name": "world",
              "type": "address"
            },
            {
              "internalType": "contract ILimitCheckerSystem",
              "name": "limitChecker",
              "type": "address"
            },
            {
              "internalType": "bytes",
              "name": "limitData",
              "type": "bytes"
            }
          ],
          "internalType": "struct IAccount.PermissionData",
          "name": "_permissionData",
          "type": "tuple"
        },
        {
          "internalType": "bytes",
          "name": "_data",
          "type": "bytes"
        }
      ],
      "name": "checkAndUpdateLimit",
      "outputs": [
        {
          "internalType": "bool",
          "name": "_allowed",
          "type": "bool"
        }
      ],
      "stateMutability": "nonpayable",
      "type": "function"
    },
    {
      "inputs": [
        {
          "internalType": "address",
          "name": "_player1",
          "type": "address"
        },
        {
          "internalType": "address",
          "name": "_player2",
          "type": "address"
        }
      ],
      "name": "createGame",
      "outputs": [
        {
          "internalType": "bytes32",
          "name": "_gameId",
          "type": "bytes32"
        }
      ],
      "stateMutability": "nonpayable",
      "type": "function"
    },
    {
      "inputs": [],
      "name": "getCounterGameSystemAddress",
      "outputs": [
        {
          "internalType": "address",
          "name": "_counterGameSystemAddress",
          "type": "address"
        }
      ],
      "stateMutability": "view",
      "type": "function"
    },
    {
      "inputs": [
        {
          "internalType": "bytes",
          "name": "_data",
          "type": "bytes"
        }
      ],
      "name": "getLimitData",
      "outputs": [
        {
          "internalType": "bytes",
          "name": "_limitData",
          "type": "bytes"
        }
      ],
      "stateMutability": "view",
      "type": "function"
    },
    {
      "inputs": [
        {
          "internalType": "bytes32",
          "name": "_gameId",
          "type": "bytes32"
        },
        {
          "internalType": "string",
          "name": "_message",
          "type": "string"
        }
      ],
      "name": "increment",
      "outputs": [
        {
          "internalType": "bool",
          "name": "_playerWon",
          "type": "bool"
        }
      ],
      "stateMutability": "nonpayable",
      "type": "function"
    },
    {
      "inputs": [
        {
          "internalType": "uint256",
          "name": "",
          "type": "uint256"
        }
      ],
      "name": "oneTimePermission",
      "outputs": [
        {
          "internalType": "bool",
          "name": "",
          "type": "bool"
        }
      ],
      "stateMutability": "view",
      "type": "function"
    },
    {
      "inputs": [
        {
          "internalType": "uint256",
          "name": "",
          "type": "uint256"
        }
      ],
      "name": "permissionIdLimitData",
      "outputs": [
        {
          "internalType": "bytes",
          "name": "",
          "type": "bytes"
        }
      ],
      "stateMutability": "view",
      "type": "function"
    }
  ],
  "bytecode": {
    "object": "0x60a060405234801561001057600080fd5b50306080526080516137b761002f600039600060c201526137b76000f3fe608060405234801561001057600080fd5b50600436106100885760003560e01c8063e18221cb1161005b578063e18221cb1461012d578063fa1bcb1b14610140578063fa74713c14610153578063ff86308b1461017657600080fd5b806326e8f9491461008d578063698c1d53146100b557806397206a20146100ec578063a6f979ff1461010c575b600080fd5b6100a061009b366004612f98565b610189565b60405190151581526020015b60405180910390f35b6040516001600160a01b037f00000000000000000000000000000000000000000000000000000000000000001681526020016100ac565b6100ff6100fa366004613010565b610546565b6040516100ac91906130aa565b61011f61011a3660046130d4565b610763565b6040519081526020016100ac565b6100a061013b366004613107565b6108fe565b6100a061014e366004613120565b610ae0565b6100a0610161366004613107565b60016020526000908152604090205460ff1681565b6100ff610184366004613107565b610d17565b600080610199608086018661316c565b6101a2916131d1565b90507f59068601000000000000000000000000000000000000000000000000000000007fffffffff000000000000000000000000000000000000000000000000000000008216016103685760008681526001602052604090205460ff16156102775760405162461bcd60e51b815260206004820152603f60248201527f436f756e74657247616d6553797374656d3a3a636865636b416e64557064617460448201527f654c696d69743a207065726d697373696f6e20616c726561647920757365640060648201526084015b60405180910390fd5b8383604051610287929190613219565b60405190819003902061029d608087018761316c565b6040516102ab929190613219565b6040518091039020149150816103295760405162461bcd60e51b815260206004820152603b60248201527f436f756e74657247616d6553797374656d3a3a636865636b416e64557064617460448201527f654c696d69743a206e6f742d617574686f72697a656420646174610000000000606482015260840161026e565b600086815260016020819052604090912080547fffffffffffffffffffffffffffffffffffffffffffffffffffffffffffffff0016909117905561053d565b7f1e7dde35000000000000000000000000000000000000000000000000000000007fffffffff000000000000000000000000000000000000000000000000000000008216016104365760008681526001602052604090205460ff16156102775760405162461bcd60e51b815260206004820152603f60248201527f436f756e74657247616d6553797374656d3a3a636865636b416e64557064617460448201527f654c696d69743a207065726d697373696f6e20616c7265616479207573656400606482015260840161026e565b7f05e434e5000000000000000000000000000000000000000000000000000000007fffffffff000000000000000000000000000000000000000000000000000000008216016104cf5761048d602460008587613229565b60405161049b929190613219565b6040519081900390206104b1608087018761316c565b6040516104bf929190613219565b604051809103902014915061053d565b60405162461bcd60e51b815260206004820152603860248201527f436f756e74657247616d6553797374656d3a3a636865636b416e64557064617460448201527f654c696d69743a20756e6b6e6f776e2066756e6374696f6e0000000000000000606482015260840161026e565b50949350505050565b6060600061055483856131d1565b90507f59068601000000000000000000000000000000000000000000000000000000007fffffffff000000000000000000000000000000000000000000000000000000008216016105de5783838080601f01602080910402602001604051908101604052809392919081815260200183838082843760009201919091525092945061075c92505050565b7f1e7dde35000000000000000000000000000000000000000000000000000000007fffffffff000000000000000000000000000000000000000000000000000000008216016106665783838080601f01602080910402602001604051908101604052809392919081815260200183838082843760009201919091525092945061075c92505050565b7f05e434e5000000000000000000000000000000000000000000000000000000007fffffffff000000000000000000000000000000000000000000000000000000008216016106ee5783838080601f01602080910402602001604051908101604052809392919081815260200183838082843760009201919091525092945061075c92505050565b60405162461bcd60e51b815260206004820152603160248201527f436f756e74657247616d6553797374656d3a3a6765744c696d6974446174613a60448201527f20756e6b6e6f776e2066756e6374696f6e000000000000000000000000000000606482015260840161026e565b5092915050565b600061076d610db1565b90506001600160a01b038316158061078c57506001600160a01b038216155b156107ff5760405162461bcd60e51b815260206004820152602e60248201527f436f756e74657247616d6553797374656d3a3a63726561746547616d653a206960448201527f6e76616c696420706c6179657273000000000000000000000000000000000000606482015260840161026e565b816001600160a01b0316836001600160a01b0316036108865760405162461bcd60e51b815260206004820152603860248201527f436f756e74657247616d6553797374656d3a3a63726561746547616d653a207060448201527f6c6179657273206d75737420626520646966666572656e740000000000000000606482015260840161026e565b6108f8816040518060e00160405280866001600160a01b03168152602001856001600160a01b0316815260200160006001600160a01b03168152602001600015158152602001600015158152602001600061ffff16815260200160405180602001604052806000815250815250610e28565b92915050565b60008061090a83610e58565b60408101519091506001600160a01b0316156109685760405162461bcd60e51b815260206004820152600c60248201527f47616d65206973206f7665720000000000000000000000000000000000000000604482015260640161026e565b80516001600160a01b031661097b610f34565b6001600160a01b0316036109eb578060600151156109db5760405162461bcd60e51b815260206004820152601a60248201527f506c61796572203120616c726561647920636f6e73656e746564000000000000604482015260640161026e565b6109e6836001610f48565b610ada565b80602001516001600160a01b0316610a01610f34565b6001600160a01b031603610a6c57806080015115610a615760405162461bcd60e51b815260206004820152601a60248201527f506c61796572203220616c726561647920636f6e73656e746564000000000000604482015260640161026e565b6109e6836001610ffa565b60405162461bcd60e51b815260206004820152602660248201527f55736572206973206e6f742070617274696369706174696e6720696e2074686960448201527f732067616d650000000000000000000000000000000000000000000000000000606482015260840161026e565b50919050565b600080610aec85610e58565b60408101519091506001600160a01b031615610b4a5760405162461bcd60e51b815260206004820152600c60248201527f47616d65206973206f7665720000000000000000000000000000000000000000604482015260640161026e565b80606001511580610b5d57508060800151155b15610bd05760405162461bcd60e51b815260206004820152602160248201527f426f746820706c6179657273206d75737420636f6e73656e7420746f20706c6160448201527f7900000000000000000000000000000000000000000000000000000000000000606482015260840161026e565b80516001600160a01b0316610be3610f34565b6001600160a01b031614158015610c17575080602001516001600160a01b0316610c0b610f34565b6001600160a01b031614155b15610c8a5760405162461bcd60e51b815260206004820152602660248201527f55736572206973206e6f742070617274696369706174696e6720696e2074686960448201527f732067616d650000000000000000000000000000000000000000000000000000606482015260840161026e565b6000610c9586611093565b610ca0906001613269565b9050610cac868261112f565b60131961ffff821601610d0e5760019250610cce86610cc9610f34565b6111e9565b610d0e8686868080601f0160208091040260200160405190810160405280939291908181526020018383808284376000920191909152506112a392505050565b50509392505050565b60006020819052908152604090208054610d309061328f565b80601f0160208091040260200160405190810160405280929190818152602001828054610d5c9061328f565b8015610da95780601f10610d7e57610100808354040283529160200191610da9565b820191906000526020600020905b815481529060010190602001808311610d8c57829003601f168201915b505050505081565b600080610dbc61132a565b9050806001600160a01b0316638459353e6040518163ffffffff1660e01b81526004016020604051808303816000875af1158015610dfe573d6000803e3d6000fd5b505050506040513d601f19601f82011682018060405250810190610e2291906132c3565b91505090565b610e5482826000015183602001518460400151856060015186608001518760a001518860c00151611342565b5050565b6040805160e08101825260008082526020820181905281830181905260608083018290526080830182905260a0830182905260c08301528251600180825281850190945291929091908160200160208202803683370190505090508281600081518110610ec757610ec76132f2565b6020908102919091018101919091526040805160009281018390526a436f756e74657247616d6560a81b6030820152610f219101604051602081830303815290604052610f1390613308565b83610f1c6113e8565b6115fa565b9050610f2c816116a7565b949350505050565b60131936013560601c80610f455750335b90565b604080516001808252818301909252600091602080830190803683370190505090508281600081518110610f7e57610f7e6132f2565b602090810291909101810191909152604080516000818401526a436f756e74657247616d6560a81b60308201528151808203909301835281019052610ff590610fc690613308565b82600385604051602001610fe191151560f81b815260010190565b604051602081830303815290604052611783565b505050565b604080516001808252818301909252600091602080830190803683370190505090508281600081518110611030576110306132f2565b602090810291909101810191909152604080516000818401526a436f756e74657247616d6560a81b60308201528151808203909301835281019052610ff59061107890613308565b82600485604051602001610fe191151560f81b815260010190565b6040805160018082528183019092526000918291906020808301908036833701905050905082816000815181106110cc576110cc6132f2565b6020908102919091018101919091526040805160009281018390526a436f756e74657247616d6560a81b6030820152611120910160405160208183030381529060405261111890613308565b83600561181c565b6020015160f01c949350505050565b604080516001808252818301909252600091602080830190803683370190505090508281600081518110611165576111656132f2565b602090810291909101810191909152604080516000818401526a436f756e74657247616d6560a81b60308201528151808203909301835281019052610ff5906111ad90613308565b6040517fffff00000000000000000000000000000000000000000000000000000000000060f086901b1660208201528390600590602201610fe1565b60408051600180825281830190925260009160208083019080368337019050509050828160008151811061121f5761121f6132f2565b602090810291909101810191909152604080516000818401526a436f756e74657247616d6560a81b60308201528151808203909301835281019052610ff59061126790613308565b6040517fffffffffffffffffffffffffffffffffffffffff000000000000000000000000606086901b1660208201528390600290603401610fe1565b6040805160018082528183019092526000916020808301908036833701905050905082816000815181106112d9576112d96132f2565b602090810291909101810191909152604080516000818401526a436f756e74657247616d6560a81b60308201528151808203909301835281019052610ff59061132190613308565b82600685611783565b6000611334611876565b61133d57503390565b503090565b6000611353888888888888886118e7565b6040805160018082528183019092529192506000919060208083019080368337019050509050898160008151811061138d5761138d6132f2565b602090810291909101810191909152604080516000818401526a436f756e74657247616d6560a81b603082015281518082039093018352810190526113dc906113d590613308565b8284611988565b50505050505050505050565b60408051600780825261010082019092526000918291906020820160e080368337019050509050606181600081518110611424576114246132f2565b602002602001019060c581111561143d5761143d61332c565b908160c58111156114505761145061332c565b81525050606181600181518110611469576114696132f2565b602002602001019060c58111156114825761148261332c565b908160c58111156114955761149561332c565b815250506061816002815181106114ae576114ae6132f2565b602002602001019060c58111156114c7576114c761332c565b908160c58111156114da576114da61332c565b815250506060816003815181106114f3576114f36132f2565b602002602001019060c581111561150c5761150c61332c565b908160c581111561151f5761151f61332c565b81525050606081600481518110611538576115386132f2565b602002602001019060c58111156115515761155161332c565b908160c58111156115645761156461332c565b8152505060018160058151811061157d5761157d6132f2565b602002602001019060c58111156115965761159661332c565b908160c58111156115a9576115a961332c565b8152505060c5816006815181106115c2576115c26132f2565b602002602001019060c58111156115db576115db61332c565b908160c58111156115ee576115ee61332c565b905250610e2281611a17565b6060611604611876565b1561161b57611614848484611ca3565b90506116a0565b6040517f419b58fd000000000000000000000000000000000000000000000000000000008152339063419b58fd9061165b9087908790879060040161337d565b600060405180830381865afa158015611678573d6000803e3d6000fd5b505050506040513d6000823e601f3d908101601f1916820160405261161491908101906133a6565b9392505050565b6040805160e0810182526000808252602080830182815293830182815260608085018490526080850184905260a085019390935260c084018390528583015191860151831c84526034860151831c909452604885015190911c909252605c830151909190611716905b60f81c90565b15156060830152605d83015161172b90611710565b15156080830152605e83015160f01c60a0830152825160401015610ada57606080611757836000611e08565b6117619082613448565b9050611776611771868484611e3a565b611eca565b60c0850152505050919050565b61178b611876565b156117a15761179c84848484611f4a565b611816565b6040517f114a7266000000000000000000000000000000000000000000000000000000008152339063114a7266906117e3908790879087908790600401613460565b600060405180830381600087803b1580156117fd57600080fd5b505af1158015611811573d6000803e3d6000fd5b505050505b50505050565b6060611826611876565b156118365761161484848461211b565b6040517fd03edb8c000000000000000000000000000000000000000000000000000000008152339063d03edb8c9061165b90879087908790600401613494565b6000303b80820361188957600191505090565b306001600160a01b031663a5c2f0076040518163ffffffff1660e01b815260040160006040518083038186803b1580156118c257600080fd5b505afa9250505080156118d3575060015b6118df57600091505090565b600191505090565b6040805160018082528183019092526060916000919060208083019080368337019050509050825181600081518110611922576119226132f2565b602002602001019064ffffffffff16908164ffffffffff168152505060006119498261213f565b9050898989898989868a60405160200161196a9897969594939291906134c0565b60405160208183030381529060405292505050979650505050505050565b611990611876565b156119a057610ff583838361221c565b6040517f8ed41f2f0000000000000000000000000000000000000000000000000000000081523390638ed41f2f906119e090869086908690600401613570565b600060405180830381600087803b1580156119fa57600080fd5b505af1158015611a0e573d6000803e3d6000fd5b50505050505050565b6000601c82511115611a5a5781516040517f5318beb900000000000000000000000000000000000000000000000000000000815260040161026e91815260200190565b60008060008060005b8651811015611b86576000611aa1888381518110611a8357611a836132f2565b602002602001015160c5811115611a9c57611a9c61332c565b6123f0565b905061ffff811615611af7578215611ae5576040517ff1e56be400000000000000000000000000000000000000000000000000000000815260040160405180910390fd5b83611aef816135a5565b945050611afc565b600192505b611b068186613269565b9450611b7b86611b17846004613448565b8a8581518110611b2957611b296132f2565b602002602001015160c5811115611b4257611b4261332c565b60f81b6008820281811c7fff0000000000000000000000000000000000000000000000000000000000000090911c198416179392505050565b955050600101611a63565b506000828751611b9691906135c4565b905060058160ff161115611bdb576040517f5318beb900000000000000000000000000000000000000000000000000000000815260ff8216600482015260240161026e565b7dffffffffffffffffffffffffffffffffffffffffffffffffffffffffffff851660f085901b1794507fffff00ffffffffffffffffffffffffffffffffffffffffffffffffffffffffff85167dff000000000000000000000000000000000000000000000000000000000060e885901b161794507fffffff00ffffffffffffffffffffffffffffffffffffffffffffffffffffffff85167cff0000000000000000000000000000000000000000000000000000000060e083901b16175b979650505050505050565b60606000611cb18360f01c90565b905080600080611cc0866124a1565b60ff1690508015611d0b57611cd588886124b2565b91506000611ce38360c81c90565b1115611d0b57611cf38260c81c90565b611cfe906020613448565b611d089084613448565b92505b60008367ffffffffffffffff811115611d2657611d266132dc565b6040519080825280601f01601f191660200182016040528015611d50576020820181803683370190505b50905060208101611d638a8a88846124c9565b611d6d8460c81c90565b600003611d81575094506116a09350505050565b611d8b8682613448565b8481529050611d9b602082613448565b905060005b838160ff161015611df9576000611db88c8c846124f1565b90506000611dc98760ff8516611e08565b9050611dd8828260008761254a565b611de28185613448565b935050508080611df1906135a5565b915050611da0565b50909998505050505050505050565b600080611e168360056135e7565b611e21906007613448565b9050611e2f84826008021b90565b60d81c949350505050565b6000818311158015611e4d575083518211155b611e89578383836040517f23230fa300000000000000000000000000000000000000000000000000000000815260040161026e93929190613606565b60208401611e978482613448565b90506000611ea5858561362b565b6fffffffffffffffffffffffffffffffff1660809290921b9190911795945050505050565b60606000611ed88360801c90565b90506fffffffffffffffffffffffffffffffff83168067ffffffffffffffff811115611f0657611f066132dc565b6040519080825280601f01601f191660200182016040528015611f30576020820181803683370190505b50925060208301611f428382846125ff565b505050919050565b6000611f5585612633565b90507fd01f9f1368f831528fc9fe6442366b2b7d957fbfff3bcf7c24d9ab5fe51f8c4685858585604051611f8c9493929190613460565b60405180910390a16000611f9f86612688565b905060005b8151811015612043576000828281518110611fc157611fc16132f2565b60200260200101519050806001600160a01b031663469b7ee2898989896040518563ffffffff1660e01b8152600401611ffd9493929190613460565b600060405180830381600087803b15801561201757600080fd5b505af115801561202b573d6000803e3d6000fd5b5050505050808061203b90613642565b915050611fa4565b5061204d8261275d565b60ff168460ff16101561206c576120678686848787612769565b612079565b612079868684878761280f565b60005b8151811015611a0e576000828281518110612099576120996132f2565b60200260200101519050806001600160a01b0316636b3d7d5f898989896040518563ffffffff1660e01b81526004016120d59493929190613460565b600060405180830381600087803b1580156120ef57600080fd5b505af1158015612103573d6000803e3d6000fd5b5050505050808061211390613642565b91505061207c565b6060600061212885612633565b90506121368585858461284c565b95945050505050565b6000806000805b84518110156121f4576121bc8361215e8360056135e7565b612169906007613448565b87848151811061217b5761217b6132f2565b602002602001015160d81b6008820281811c7fffffffffff00000000000000000000000000000000000000000000000000000090911c198416179392505050565b92508481815181106121d0576121d06132f2565b602002602001015164ffffffffff16826121ea919061365c565b9150600101612146565b5078ffffffffffffffffffffffffffffffffffffffffffffffffff821660c882901b17610f2c565b600061222784612633565b90506000806122368385612883565b915091507f912af873e852235aae78a1d25ae9bb28b616a67c36898c53a14fd8184504ee3286868660405161226d93929190613570565b60405180910390a1600061228087612688565b905060005b81518110156123225760008282815181106122a2576122a26132f2565b60200260200101519050806001600160a01b03166382b6745f8a8a8a6040518463ffffffff1660e01b81526004016122dc93929190613570565b600060405180830381600087803b1580156122f657600080fd5b505af115801561230a573d6000803e3d6000fd5b5050505050808061231a90613642565b915050612285565b50600061232f8888612921565b9050602086016123428260008388612977565b61234d856020613448565b6123579082613448565b9050612362866124a1565b60ff1660000361237757505050505050505050565b60006123838a8a612a35565b858155905060008060005b6123978a6124a1565b60ff168160ff1610156123e1576123af8d8d836124f1565b92506123be8860ff8316611e08565b91506123cd8360008785612977565b6123d78286613448565b945060010161238e565b50505050505050505050505050565b6000808260c58111156124055761240561332c565b60ff169050602081101561241e576116a0816001613448565b604081101561243e576020612434826001613448565b6116a0919061362b565b6060811015612454576040612434826001613448565b60608360c58111156124685761246861332c565b036124765750600192915050565b60618360c581111561248a5761248a61332c565b036124985750601492915050565b50600092915050565b6000601882901b5b60f81c92915050565b6000806124bf8484612a35565b9050610f2c815490565b81156118165760006124db8585612921565b90506124ea818460008561254a565b5050505050565b60007f86425bff6b57326c7859e89024fe4f238ca327a1ae4a230180dd2f0e88aaa7d984848460405160200161252a949392919061367e565b60408051601f198184030181529190528051602090910120949350505050565b602082048401935060208281612562576125626136b1565b06915081156125b35760208290036000600019600883021c1990508554600885021b81198451168282161784525081851161259e575050611816565b6125a9600187613448565b9550509283900392015b602083106125db57835481526125ca600185613448565b9350601f19909201916020016125b3565b8215611816576000600019600885021c198251865482169119161782525050505050565b6020811115612616578082828560045afa50505050565b6000600019600883021c1983518551821691191617835250505050565b600061263e82612a6c565b905080612683578161264f83612b27565b6040517fd623a70d00000000000000000000000000000000000000000000000000000000815260040161026e9291906136c7565b919050565b604080516001808252818301909252606091600091906020808301908036833701905050905082816000815181106126c2576126c26132f2565b602090810291909101810191909152604080517f6d756473746f7265000000000000000000000000000000000000000000000000818401527f486f6f6b73000000000000000000000000000000000000000000000000000000603082015281518082039093018352810190526000906127469061273e90613308565b83600061181c565b9050610f2c6127588260008451611e3a565b612b52565b6000601082901b6124a9565b60006127788460ff8516612b63565b905081516127918260c5811115611a9c57611a9c61332c565b146127e8576127ab8160c5811115611a9c57611a9c61332c565b82516040517f521b3d330000000000000000000000000000000000000000000000000000000081526004810192909252602482015260440161026e565b60006127f48787612921565b905060006128028686612b8f565b9050611811828286612be3565b600061281a8461275d565b61282490846135c4565b90506128338686838551612bf8565b60006128408787846124f1565b9050611a0e8184612c2a565b60606128578261275d565b60ff168360ff1610156128775761287085858585612c36565b9050610f2c565b61287085858585612c96565b6000806128908460f01c90565b915081600061289e866124a1565b60ff1611156128d2578284016020015191506128ba8260c81c90565b6128c5906020613448565b6128cf9082613448565b90505b835181146129195783516040517f521b3d3300000000000000000000000000000000000000000000000000000000815261026e918391600401918252602082015260400190565b509250929050565b60007f86425bff6b57326c7859e89024fe4f238ca327a1ae4a230180dd2f0e88aaa7d98383604051602001612958939291906136e0565b60408051601f1981840301815291905280516020909101209392505050565b60208304840193506020838161298f5761298f6136b1565b06925082156129e85760208390036000600019600884021c1990506008850281811c91508451811c90508119875416828216178755508183116129d3575050611816565b6129de600187613448565b9550509182019190035b60208110612a1157815184556129ff600185613448565b935060209190910190601f19016129e8565b8015611816576000600019600883021c198554845182169119161785555050505050565b60007f86425bff6b57326c7859e89024fe4f238ca327a1ae4a230180dd2f0e88aaa7d98383604051602001612958939291906136ff565b604080516001808252818301909252600091829190602080830190803683370190505090508281600081518110612aa557612aa56132f2565b602090810291909101810191909152604080517f6d756473746f7265000000000000000000000000000000000000000000000000818401527f736368656d610000000000000000000000000000000000000000000000000000603082015281518082039093018352810190526000906124bf90612b2190613308565b83612921565b606081604051602001612b3c91815260200190565b6040516020818303038152906040529050919050565b606060006116a08360146000612cef565b6000612b7b83612b74846004613448565b6008021b90565b60f81c60c58111156116a0576116a061332c565b600080805b8360ff16811015612bdb57612bbd612bac8683612b63565b60c5811115611a9c57611a9c61332c565b612bc79083613448565b915080612bd381613642565b915050612b94565b509392505050565b60006020820190506118168484838551612977565b6000612c048585612a35565b90506000612c10825490565b9050612c208160ff861685612e18565b9091555050505050565b610e5482600083612be3565b60606000612c478360ff8616612b63565b90506000612c608260c5811115611a9c57611a9c61332c565b90506000612c6e8888612921565b90506000612c7c8688612b8f565b9050612c89828483612ee9565b9998505050505050505050565b60606000612ca38361275d565b612cad90856135c4565b90506000612cbc8787846124f1565b90506000612cd78360ff16612cd18a8a6124b2565b90611e08565b9050612ce38282612f41565b98975050505050505050565b60606000612cfd8560801c90565b90506fffffffffffffffffffffffffffffffff8516600084612d3557612d248660086135e7565b612d309061010061362b565b612d38565b60005b90506000868381612d4b57612d4b6136b1565b049050612d58878461375f565b15612dcb5760405162461bcd60e51b815260206004820152603d60248201527f756e7061636b546f41727261793a207061636b65644c656e677468206d75737460448201527f2062652061206d756c7469706c65206f6620656c656d656e7453697a65000000606482015260840161026e565b602080820201604051955080860160405250808552600060208601855b83831015612e0a578051851c8252600192909201916020909101908901612de8565b505050505050509392505050565b60008381612e268260c81c90565b90506000612e37878760ff16611e08565b9050808510612e5b57612e4a818661362b565b612e549083613448565b9150612e72565b612e65858261362b565b612e6f908361362b565b91505b6000612e7f8760056135e7565b612e8a906007613448565b905078ffffffffffffffffffffffffffffffffffffffffffffffffff841660c884901b1793507fffffffffff0000000000000000000000000000000000000000000000000000006008820290811c19851660d888901b90911c17612ce3565b60608267ffffffffffffffff811115612f0457612f046132dc565b6040519080825280601f01601f191660200182016040528015612f2e576020820181803683370190505b50905060208101612bdb8585858461254a565b60606116a083836000612ee9565b60008083601f840112612f6157600080fd5b50813567ffffffffffffffff811115612f7957600080fd5b602083019150836020828501011115612f9157600080fd5b9250929050565b60008060008060608587031215612fae57600080fd5b84359350602085013567ffffffffffffffff80821115612fcd57600080fd5b9086019060a08289031215612fe157600080fd5b90935060408601359080821115612ff757600080fd5b5061300487828801612f4f565b95989497509550505050565b6000806020838503121561302357600080fd5b823567ffffffffffffffff81111561303a57600080fd5b61304685828601612f4f565b90969095509350505050565b60005b8381101561306d578181015183820152602001613055565b838111156118165750506000910152565b60008151808452613096816020860160208601613052565b601f01601f19169290920160200192915050565b6020815260006116a0602083018461307e565b80356001600160a01b038116811461268357600080fd5b600080604083850312156130e757600080fd5b6130f0836130bd565b91506130fe602084016130bd565b90509250929050565b60006020828403121561311957600080fd5b5035919050565b60008060006040848603121561313557600080fd5b83359250602084013567ffffffffffffffff81111561315357600080fd5b61315f86828701612f4f565b9497909650939450505050565b60008083357fffffffffffffffffffffffffffffffffffffffffffffffffffffffffffffffe18436030181126131a157600080fd5b83018035915067ffffffffffffffff8211156131bc57600080fd5b602001915036819003821315612f9157600080fd5b7fffffffff0000000000000000000000000000000000000000000000000000000081358181169160048510156132115780818660040360031b1b83161692505b505092915050565b8183823760009101908152919050565b6000808585111561323957600080fd5b8386111561324657600080fd5b5050820193919092039150565b634e487b7160e01b600052601160045260246000fd5b600061ffff80831681851680830382111561328657613286613253565b01949350505050565b600181811c908216806132a357607f821691505b602082108103610ada57634e487b7160e01b600052602260045260246000fd5b6000602082840312156132d557600080fd5b5051919050565b634e487b7160e01b600052604160045260246000fd5b634e487b7160e01b600052603260045260246000fd5b80516020808301519190811015610ada5760001960209190910360031b1b16919050565b634e487b7160e01b600052602160045260246000fd5b600081518084526020808501945080840160005b8381101561337257815187529582019590820190600101613356565b509495945050505050565b8381526060602082015260006133966060830185613342565b9050826040830152949350505050565b6000602082840312156133b857600080fd5b815167ffffffffffffffff808211156133d057600080fd5b818401915084601f8301126133e457600080fd5b8151818111156133f6576133f66132dc565b604051601f8201601f19908116603f0116810190838211818310171561341e5761341e6132dc565b8160405282815287602084870101111561343757600080fd5b611c98836020830160208801613052565b6000821982111561345b5761345b613253565b500190565b8481526080602082015260006134796080830186613342565b60ff851660408401528281036060840152611c98818561307e565b8381526060602082015260006134ad6060830185613342565b905060ff83166040830152949350505050565b60007fffffffffffffffffffffffffffffffffffffffff000000000000000000000000808b60601b168352808a60601b166014840152808960601b1660288401525086151560f81b603c83015285151560f81b603d8301527fffff0000000000000000000000000000000000000000000000000000000000008560f01b16603e830152836040830152825161355c816060850160208701613052565b919091016060019998505050505050505050565b8381526060602082015260006135896060830185613342565b828103604084015261359b818561307e565b9695505050505050565b600060ff821660ff81036135bb576135bb613253565b60010192915050565b600060ff821660ff8416808210156135de576135de613253565b90039392505050565b600081600019048311821515161561360157613601613253565b500290565b606081526000613619606083018661307e565b60208301949094525060400152919050565b60008282101561363d5761363d613253565b500390565b6000600019820361365557613655613253565b5060010190565b600066ffffffffffffff80831681851680830382111561328657613286613253565b84815283602082015260806040820152600061369d6080830185613342565b905060ff8316606083015295945050505050565b634e487b7160e01b600052601260045260246000fd5b828152604060208201526000610f2c604083018461307e565b8381528260208201526060604082015260006121366060830184613342565b83815282602082015260806040820152600061371e6080830184613342565b8281036060840152600681527f6c656e6774680000000000000000000000000000000000000000000000000000602082015260408101915050949350505050565b60008261377c57634e487b7160e01b600052601260045260246000fd5b50069056fea264697066735822122085363e45637ef647d214bf400ac38cc8cfb2e3a348f501414617e2153d35068664736f6c634300080d0033",
    "linkReferences": {}
  },
  "methodIdentifiers": {
    "acceptGame(bytes32)": "e18221cb",
    "checkAndUpdateLimit(uint256,(address,address,address,address,bytes),bytes)": "26e8f949",
    "createGame(address,address)": "a6f979ff",
    "getCounterGameSystemAddress()": "698c1d53",
    "getLimitData(bytes)": "97206a20",
    "increment(bytes32,string)": "fa1bcb1b",
    "oneTimePermission(uint256)": "fa74713c",
    "permissionIdLimitData(uint256)": "ff86308b"
  },
  "id": 130
}