{
  "abi": [
    {
      "inputs": [
        {
          "internalType": "uint256",
          "name": "length",
          "type": "uint256"
        }
      ],
      "name": "SchemaLib_InvalidLength",
      "type": "error"
    },
    {
      "inputs": [],
      "name": "SchemaLib_StaticTypeAfterDynamicType",
      "type": "error"
    },
    {
      "inputs": [
        {
          "internalType": "bytes",
          "name": "data",
          "type": "bytes"
        },
        {
          "internalType": "uint256",
          "name": "start",
          "type": "uint256"
        },
        {
          "internalType": "uint256",
          "name": "end",
          "type": "uint256"
        }
      ],
      "name": "Slice_OutOfBounds",
      "type": "error"
    },
    {
      "inputs": [
        {
          "internalType": "uint256",
          "name": "expected",
          "type": "uint256"
        },
        {
          "internalType": "uint256",
          "name": "received",
          "type": "uint256"
        }
      ],
      "name": "StoreCore_InvalidDataLength",
      "type": "error"
    },
    {
      "inputs": [
        {
          "internalType": "bytes32",
          "name": "tableId",
          "type": "bytes32"
        },
        {
          "internalType": "string",
          "name": "tableIdString",
          "type": "string"
        }
      ],
      "name": "StoreCore_TableNotFound",
      "type": "error"
    },
    {
      "inputs": [
        {
          "internalType": "bytes32",
          "name": "_gameId",
          "type": "bytes32"
        }
      ],
      "name": "acceptGame",
      "outputs": [
        {
          "internalType": "bool",
          "name": "_playerConsent",
          "type": "bool"
        }
      ],
      "stateMutability": "nonpayable",
      "type": "function"
    },
    {
      "inputs": [
        {
          "internalType": "uint256",
          "name": "_permissionId",
          "type": "uint256"
        },
        {
          "components": [
            {
              "internalType": "contract IAuthController",
              "name": "authController",
              "type": "address"
            },
            {
              "internalType": "address",
              "name": "client",
              "type": "address"
            },
            {
              "internalType": "address",
              "name": "world",
              "type": "address"
            },
            {
              "internalType": "contract ILimitCheckerSystem",
              "name": "limitChecker",
              "type": "address"
            },
            {
              "internalType": "bytes",
              "name": "limitData",
              "type": "bytes"
            }
          ],
          "internalType": "struct IAccount.PermissionData",
          "name": "_permissionData",
          "type": "tuple"
        },
        {
          "internalType": "bytes",
          "name": "_data",
          "type": "bytes"
        }
      ],
      "name": "checkAndUpdateLimit",
      "outputs": [
        {
          "internalType": "bool",
          "name": "_allowed",
          "type": "bool"
        }
      ],
      "stateMutability": "nonpayable",
      "type": "function"
    },
    {
      "inputs": [
        {
          "internalType": "address",
          "name": "_player1",
          "type": "address"
        },
        {
          "internalType": "address",
          "name": "_player2",
          "type": "address"
        }
      ],
      "name": "createGame",
      "outputs": [
        {
          "internalType": "bytes32",
          "name": "_gameId",
          "type": "bytes32"
        }
      ],
      "stateMutability": "nonpayable",
      "type": "function"
    },
    {
      "inputs": [],
      "name": "getCounterGameSystemAddress",
      "outputs": [
        {
          "internalType": "address",
          "name": "_counterGameSystemAddress",
          "type": "address"
        }
      ],
      "stateMutability": "view",
      "type": "function"
    },
    {
      "inputs": [
        {
          "internalType": "bytes",
          "name": "_data",
          "type": "bytes"
        }
      ],
      "name": "getLimitData",
      "outputs": [
        {
          "internalType": "bytes",
          "name": "_limitData",
          "type": "bytes"
        }
      ],
      "stateMutability": "view",
      "type": "function"
    },
    {
      "inputs": [
        {
          "internalType": "bytes32",
          "name": "_gameId",
          "type": "bytes32"
        },
        {
          "internalType": "string",
          "name": "_message",
          "type": "string"
        }
      ],
      "name": "increment",
      "outputs": [
        {
          "internalType": "bool",
          "name": "_playerWon",
          "type": "bool"
        }
      ],
      "stateMutability": "nonpayable",
      "type": "function"
    },
    {
      "inputs": [
        {
          "internalType": "uint256",
          "name": "",
          "type": "uint256"
        }
      ],
      "name": "oneTimePermission",
      "outputs": [
        {
          "internalType": "bool",
          "name": "",
          "type": "bool"
        }
      ],
      "stateMutability": "view",
      "type": "function"
    },
    {
      "inputs": [
        {
          "internalType": "uint256",
          "name": "",
          "type": "uint256"
        }
      ],
      "name": "permissionIdLimitData",
      "outputs": [
        {
          "internalType": "bytes",
          "name": "",
          "type": "bytes"
        }
      ],
      "stateMutability": "view",
      "type": "function"
    }
  ],
  "bytecode": {
    "object": "0x608060405234801561001057600080fd5b5061378e806100206000396000f3fe608060405234801561001057600080fd5b50600436106100885760003560e01c8063e18221cb1161005b578063e18221cb14610104578063fa1bcb1b14610117578063fa74713c1461012a578063ff86308b1461014d57600080fd5b806326e8f9491461008d578063698c1d53146100b557806397206a20146100c3578063a6f979ff146100e3575b600080fd5b6100a061009b366004612f6f565b610160565b60405190151581526020015b60405180910390f35b6040513081526020016100ac565b6100d66100d1366004612fe7565b61051d565b6040516100ac9190613081565b6100f66100f13660046130ab565b61073a565b6040519081526020016100ac565b6100a06101123660046130de565b6108d5565b6100a06101253660046130f7565b610ab7565b6100a06101383660046130de565b60016020526000908152604090205460ff1681565b6100d661015b3660046130de565b610cee565b6000806101706080860186613143565b610179916131a8565b90507f59068601000000000000000000000000000000000000000000000000000000007fffffffff0000000000000000000000000000000000000000000000000000000082160161033f5760008681526001602052604090205460ff161561024e5760405162461bcd60e51b815260206004820152603f60248201527f436f756e74657247616d6553797374656d3a3a636865636b416e64557064617460448201527f654c696d69743a207065726d697373696f6e20616c726561647920757365640060648201526084015b60405180910390fd5b838360405161025e9291906131f0565b6040519081900390206102746080870187613143565b6040516102829291906131f0565b6040518091039020149150816103005760405162461bcd60e51b815260206004820152603b60248201527f436f756e74657247616d6553797374656d3a3a636865636b416e64557064617460448201527f654c696d69743a206e6f742d617574686f72697a6564206461746100000000006064820152608401610245565b600086815260016020819052604090912080547fffffffffffffffffffffffffffffffffffffffffffffffffffffffffffffff00169091179055610514565b7f1e7dde35000000000000000000000000000000000000000000000000000000007fffffffff0000000000000000000000000000000000000000000000000000000082160161040d5760008681526001602052604090205460ff161561024e5760405162461bcd60e51b815260206004820152603f60248201527f436f756e74657247616d6553797374656d3a3a636865636b416e64557064617460448201527f654c696d69743a207065726d697373696f6e20616c72656164792075736564006064820152608401610245565b7f05e434e5000000000000000000000000000000000000000000000000000000007fffffffff000000000000000000000000000000000000000000000000000000008216016104a657610464602460008587613200565b6040516104729291906131f0565b6040519081900390206104886080870187613143565b6040516104969291906131f0565b6040518091039020149150610514565b60405162461bcd60e51b815260206004820152603860248201527f436f756e74657247616d6553797374656d3a3a636865636b416e64557064617460448201527f654c696d69743a20756e6b6e6f776e2066756e6374696f6e00000000000000006064820152608401610245565b50949350505050565b6060600061052b83856131a8565b90507f59068601000000000000000000000000000000000000000000000000000000007fffffffff000000000000000000000000000000000000000000000000000000008216016105b55783838080601f01602080910402602001604051908101604052809392919081815260200183838082843760009201919091525092945061073392505050565b7f1e7dde35000000000000000000000000000000000000000000000000000000007fffffffff0000000000000000000000000000000000000000000000000000000082160161063d5783838080601f01602080910402602001604051908101604052809392919081815260200183838082843760009201919091525092945061073392505050565b7f05e434e5000000000000000000000000000000000000000000000000000000007fffffffff000000000000000000000000000000000000000000000000000000008216016106c55783838080601f01602080910402602001604051908101604052809392919081815260200183838082843760009201919091525092945061073392505050565b60405162461bcd60e51b815260206004820152603160248201527f436f756e74657247616d6553797374656d3a3a6765744c696d6974446174613a60448201527f20756e6b6e6f776e2066756e6374696f6e0000000000000000000000000000006064820152608401610245565b5092915050565b6000610744610d88565b90506001600160a01b038316158061076357506001600160a01b038216155b156107d65760405162461bcd60e51b815260206004820152602e60248201527f436f756e74657247616d6553797374656d3a3a63726561746547616d653a206960448201527f6e76616c696420706c61796572730000000000000000000000000000000000006064820152608401610245565b816001600160a01b0316836001600160a01b03160361085d5760405162461bcd60e51b815260206004820152603860248201527f436f756e74657247616d6553797374656d3a3a63726561746547616d653a207060448201527f6c6179657273206d75737420626520646966666572656e7400000000000000006064820152608401610245565b6108cf816040518060e00160405280866001600160a01b03168152602001856001600160a01b0316815260200160006001600160a01b03168152602001600015158152602001600015158152602001600061ffff16815260200160405180602001604052806000815250815250610dff565b92915050565b6000806108e183610e2f565b60408101519091506001600160a01b03161561093f5760405162461bcd60e51b815260206004820152600c60248201527f47616d65206973206f76657200000000000000000000000000000000000000006044820152606401610245565b80516001600160a01b0316610952610f0b565b6001600160a01b0316036109c2578060600151156109b25760405162461bcd60e51b815260206004820152601a60248201527f506c61796572203120616c726561647920636f6e73656e7465640000000000006044820152606401610245565b6109bd836001610f1f565b610ab1565b80602001516001600160a01b03166109d8610f0b565b6001600160a01b031603610a4357806080015115610a385760405162461bcd60e51b815260206004820152601a60248201527f506c61796572203220616c726561647920636f6e73656e7465640000000000006044820152606401610245565b6109bd836001610fd1565b60405162461bcd60e51b815260206004820152602660248201527f55736572206973206e6f742070617274696369706174696e6720696e2074686960448201527f732067616d6500000000000000000000000000000000000000000000000000006064820152608401610245565b50919050565b600080610ac385610e2f565b60408101519091506001600160a01b031615610b215760405162461bcd60e51b815260206004820152600c60248201527f47616d65206973206f76657200000000000000000000000000000000000000006044820152606401610245565b80606001511580610b3457508060800151155b15610ba75760405162461bcd60e51b815260206004820152602160248201527f426f746820706c6179657273206d75737420636f6e73656e7420746f20706c6160448201527f79000000000000000000000000000000000000000000000000000000000000006064820152608401610245565b80516001600160a01b0316610bba610f0b565b6001600160a01b031614158015610bee575080602001516001600160a01b0316610be2610f0b565b6001600160a01b031614155b15610c615760405162461bcd60e51b815260206004820152602660248201527f55736572206973206e6f742070617274696369706174696e6720696e2074686960448201527f732067616d6500000000000000000000000000000000000000000000000000006064820152608401610245565b6000610c6c8661106a565b610c77906001613240565b9050610c838682611106565b60131961ffff821601610ce55760019250610ca586610ca0610f0b565b6111c0565b610ce58686868080601f01602080910402602001604051908101604052809392919081815260200183838082843760009201919091525061127a92505050565b50509392505050565b60006020819052908152604090208054610d0790613266565b80601f0160208091040260200160405190810160405280929190818152602001828054610d3390613266565b8015610d805780601f10610d5557610100808354040283529160200191610d80565b820191906000526020600020905b815481529060010190602001808311610d6357829003601f168201915b505050505081565b600080610d93611301565b9050806001600160a01b0316638459353e6040518163ffffffff1660e01b81526004016020604051808303816000875af1158015610dd5573d6000803e3d6000fd5b505050506040513d601f19601f82011682018060405250810190610df9919061329a565b91505090565b610e2b82826000015183602001518460400151856060015186608001518760a001518860c00151611319565b5050565b6040805160e08101825260008082526020820181905281830181905260608083018290526080830182905260a0830182905260c08301528251600180825281850190945291929091908160200160208202803683370190505090508281600081518110610e9e57610e9e6132c9565b6020908102919091018101919091526040805160009281018390526a436f756e74657247616d6560a81b6030820152610ef89101604051602081830303815290604052610eea906132df565b83610ef36113bf565b6115d1565b9050610f038161167e565b949350505050565b60131936013560601c80610f1c5750335b90565b604080516001808252818301909252600091602080830190803683370190505090508281600081518110610f5557610f556132c9565b602090810291909101810191909152604080516000818401526a436f756e74657247616d6560a81b60308201528151808203909301835281019052610fcc90610f9d906132df565b82600385604051602001610fb891151560f81b815260010190565b60405160208183030381529060405261175a565b505050565b604080516001808252818301909252600091602080830190803683370190505090508281600081518110611007576110076132c9565b602090810291909101810191909152604080516000818401526a436f756e74657247616d6560a81b60308201528151808203909301835281019052610fcc9061104f906132df565b82600485604051602001610fb891151560f81b815260010190565b6040805160018082528183019092526000918291906020808301908036833701905050905082816000815181106110a3576110a36132c9565b6020908102919091018101919091526040805160009281018390526a436f756e74657247616d6560a81b60308201526110f791016040516020818303038152906040526110ef906132df565b8360056117f3565b6020015160f01c949350505050565b60408051600180825281830190925260009160208083019080368337019050509050828160008151811061113c5761113c6132c9565b602090810291909101810191909152604080516000818401526a436f756e74657247616d6560a81b60308201528151808203909301835281019052610fcc90611184906132df565b6040517fffff00000000000000000000000000000000000000000000000000000000000060f086901b1660208201528390600590602201610fb8565b6040805160018082528183019092526000916020808301908036833701905050905082816000815181106111f6576111f66132c9565b602090810291909101810191909152604080516000818401526a436f756e74657247616d6560a81b60308201528151808203909301835281019052610fcc9061123e906132df565b6040517fffffffffffffffffffffffffffffffffffffffff000000000000000000000000606086901b1660208201528390600290603401610fb8565b6040805160018082528183019092526000916020808301908036833701905050905082816000815181106112b0576112b06132c9565b602090810291909101810191909152604080516000818401526a436f756e74657247616d6560a81b60308201528151808203909301835281019052610fcc906112f8906132df565b8260068561175a565b600061130b61184d565b61131457503390565b503090565b600061132a888888888888886118be565b60408051600180825281830190925291925060009190602080830190803683370190505090508981600081518110611364576113646132c9565b602090810291909101810191909152604080516000818401526a436f756e74657247616d6560a81b603082015281518082039093018352810190526113b3906113ac906132df565b828461195f565b50505050505050505050565b60408051600780825261010082019092526000918291906020820160e0803683370190505090506061816000815181106113fb576113fb6132c9565b602002602001019060c581111561141457611414613303565b908160c581111561142757611427613303565b81525050606181600181518110611440576114406132c9565b602002602001019060c581111561145957611459613303565b908160c581111561146c5761146c613303565b81525050606181600281518110611485576114856132c9565b602002602001019060c581111561149e5761149e613303565b908160c58111156114b1576114b1613303565b815250506060816003815181106114ca576114ca6132c9565b602002602001019060c58111156114e3576114e3613303565b908160c58111156114f6576114f6613303565b8152505060608160048151811061150f5761150f6132c9565b602002602001019060c581111561152857611528613303565b908160c581111561153b5761153b613303565b81525050600181600581518110611554576115546132c9565b602002602001019060c581111561156d5761156d613303565b908160c581111561158057611580613303565b8152505060c581600681518110611599576115996132c9565b602002602001019060c58111156115b2576115b2613303565b908160c58111156115c5576115c5613303565b905250610df9816119ee565b60606115db61184d565b156115f2576115eb848484611c7a565b9050611677565b6040517f419b58fd000000000000000000000000000000000000000000000000000000008152339063419b58fd9061163290879087908790600401613354565b600060405180830381865afa15801561164f573d6000803e3d6000fd5b505050506040513d6000823e601f3d908101601f191682016040526115eb919081019061337d565b9392505050565b6040805160e0810182526000808252602080830182815293830182815260608085018490526080850184905260a085019390935260c084018390528583015191860151831c84526034860151831c909452604885015190911c909252605c8301519091906116ed905b60f81c90565b15156060830152605d830151611702906116e7565b15156080830152605e83015160f01c60a0830152825160401015610ab15760608061172e836000611ddf565b611738908261341f565b905061174d611748868484611e11565b611ea1565b60c0850152505050919050565b61176261184d565b156117785761177384848484611f21565b6117ed565b6040517f114a7266000000000000000000000000000000000000000000000000000000008152339063114a7266906117ba908790879087908790600401613437565b600060405180830381600087803b1580156117d457600080fd5b505af11580156117e8573d6000803e3d6000fd5b505050505b50505050565b60606117fd61184d565b1561180d576115eb8484846120f2565b6040517fd03edb8c000000000000000000000000000000000000000000000000000000008152339063d03edb8c906116329087908790879060040161346b565b6000303b80820361186057600191505090565b306001600160a01b031663a5c2f0076040518163ffffffff1660e01b815260040160006040518083038186803b15801561189957600080fd5b505afa9250505080156118aa575060015b6118b657600091505090565b600191505090565b60408051600180825281830190925260609160009190602080830190803683370190505090508251816000815181106118f9576118f96132c9565b602002602001019064ffffffffff16908164ffffffffff1681525050600061192082612116565b9050898989898989868a604051602001611941989796959493929190613497565b60405160208183030381529060405292505050979650505050505050565b61196761184d565b1561197757610fcc8383836121f3565b6040517f8ed41f2f0000000000000000000000000000000000000000000000000000000081523390638ed41f2f906119b790869086908690600401613547565b600060405180830381600087803b1580156119d157600080fd5b505af11580156119e5573d6000803e3d6000fd5b50505050505050565b6000601c82511115611a315781516040517f5318beb900000000000000000000000000000000000000000000000000000000815260040161024591815260200190565b60008060008060005b8651811015611b5d576000611a78888381518110611a5a57611a5a6132c9565b602002602001015160c5811115611a7357611a73613303565b6123c7565b905061ffff811615611ace578215611abc576040517ff1e56be400000000000000000000000000000000000000000000000000000000815260040160405180910390fd5b83611ac68161357c565b945050611ad3565b600192505b611add8186613240565b9450611b5286611aee84600461341f565b8a8581518110611b0057611b006132c9565b602002602001015160c5811115611b1957611b19613303565b60f81b6008820281811c7fff0000000000000000000000000000000000000000000000000000000000000090911c198416179392505050565b955050600101611a3a565b506000828751611b6d919061359b565b905060058160ff161115611bb2576040517f5318beb900000000000000000000000000000000000000000000000000000000815260ff82166004820152602401610245565b7dffffffffffffffffffffffffffffffffffffffffffffffffffffffffffff851660f085901b1794507fffff00ffffffffffffffffffffffffffffffffffffffffffffffffffffffffff85167dff000000000000000000000000000000000000000000000000000000000060e885901b161794507fffffff00ffffffffffffffffffffffffffffffffffffffffffffffffffffffff85167cff0000000000000000000000000000000000000000000000000000000060e083901b16175b979650505050505050565b60606000611c888360f01c90565b905080600080611c9786612478565b60ff1690508015611ce257611cac8888612489565b91506000611cba8360c81c90565b1115611ce257611cca8260c81c90565b611cd590602061341f565b611cdf908461341f565b92505b60008367ffffffffffffffff811115611cfd57611cfd6132b3565b6040519080825280601f01601f191660200182016040528015611d27576020820181803683370190505b50905060208101611d3a8a8a88846124a0565b611d448460c81c90565b600003611d58575094506116779350505050565b611d62868261341f565b8481529050611d7260208261341f565b905060005b838160ff161015611dd0576000611d8f8c8c846124c8565b90506000611da08760ff8516611ddf565b9050611daf8282600087612521565b611db9818561341f565b935050508080611dc89061357c565b915050611d77565b50909998505050505050505050565b600080611ded8360056135be565b611df890600761341f565b9050611e0684826008021b90565b60d81c949350505050565b6000818311158015611e24575083518211155b611e60578383836040517f23230fa3000000000000000000000000000000000000000000000000000000008152600401610245939291906135dd565b60208401611e6e848261341f565b90506000611e7c8585613602565b6fffffffffffffffffffffffffffffffff1660809290921b9190911795945050505050565b60606000611eaf8360801c90565b90506fffffffffffffffffffffffffffffffff83168067ffffffffffffffff811115611edd57611edd6132b3565b6040519080825280601f01601f191660200182016040528015611f07576020820181803683370190505b50925060208301611f198382846125d6565b505050919050565b6000611f2c8561260a565b90507fd01f9f1368f831528fc9fe6442366b2b7d957fbfff3bcf7c24d9ab5fe51f8c4685858585604051611f639493929190613437565b60405180910390a16000611f768661265f565b905060005b815181101561201a576000828281518110611f9857611f986132c9565b60200260200101519050806001600160a01b031663469b7ee2898989896040518563ffffffff1660e01b8152600401611fd49493929190613437565b600060405180830381600087803b158015611fee57600080fd5b505af1158015612002573d6000803e3d6000fd5b5050505050808061201290613619565b915050611f7b565b5061202482612734565b60ff168460ff1610156120435761203e8686848787612740565b612050565b61205086868487876127e6565b60005b81518110156119e5576000828281518110612070576120706132c9565b60200260200101519050806001600160a01b0316636b3d7d5f898989896040518563ffffffff1660e01b81526004016120ac9493929190613437565b600060405180830381600087803b1580156120c657600080fd5b505af11580156120da573d6000803e3d6000fd5b505050505080806120ea90613619565b915050612053565b606060006120ff8561260a565b905061210d85858584612823565b95945050505050565b6000806000805b84518110156121cb57612193836121358360056135be565b61214090600761341f565b878481518110612152576121526132c9565b602002602001015160d81b6008820281811c7fffffffffff00000000000000000000000000000000000000000000000000000090911c198416179392505050565b92508481815181106121a7576121a76132c9565b602002602001015164ffffffffff16826121c19190613633565b915060010161211d565b5078ffffffffffffffffffffffffffffffffffffffffffffffffff821660c882901b17610f03565b60006121fe8461260a565b905060008061220d838561285a565b915091507f912af873e852235aae78a1d25ae9bb28b616a67c36898c53a14fd8184504ee3286868660405161224493929190613547565b60405180910390a160006122578761265f565b905060005b81518110156122f9576000828281518110612279576122796132c9565b60200260200101519050806001600160a01b03166382b6745f8a8a8a6040518463ffffffff1660e01b81526004016122b393929190613547565b600060405180830381600087803b1580156122cd57600080fd5b505af11580156122e1573d6000803e3d6000fd5b505050505080806122f190613619565b91505061225c565b50600061230688886128f8565b905060208601612319826000838861294e565b61232485602061341f565b61232e908261341f565b905061233986612478565b60ff1660000361234e57505050505050505050565b600061235a8a8a612a0c565b858155905060008060005b61236e8a612478565b60ff168160ff1610156123b8576123868d8d836124c8565b92506123958860ff8316611ddf565b91506123a4836000878561294e565b6123ae828661341f565b9450600101612365565b50505050505050505050505050565b6000808260c58111156123dc576123dc613303565b60ff16905060208110156123f55761167781600161341f565b604081101561241557602061240b82600161341f565b6116779190613602565b606081101561242b57604061240b82600161341f565b60608360c581111561243f5761243f613303565b0361244d5750600192915050565b60618360c581111561246157612461613303565b0361246f5750601492915050565b50600092915050565b6000601882901b5b60f81c92915050565b6000806124968484612a0c565b9050610f03815490565b81156117ed5760006124b285856128f8565b90506124c18184600085612521565b5050505050565b60007f86425bff6b57326c7859e89024fe4f238ca327a1ae4a230180dd2f0e88aaa7d98484846040516020016125019493929190613655565b60408051601f198184030181529190528051602090910120949350505050565b60208204840193506020828161253957612539613688565b069150811561258a5760208290036000600019600883021c1990508554600885021b8119845116828216178452508185116125755750506117ed565b61258060018761341f565b9550509283900392015b602083106125b257835481526125a160018561341f565b9350601f199092019160200161258a565b82156117ed576000600019600885021c198251865482169119161782525050505050565b60208111156125ed578082828560045afa50505050565b6000600019600883021c1983518551821691191617835250505050565b600061261582612a43565b90508061265a578161262683612afe565b6040517fd623a70d00000000000000000000000000000000000000000000000000000000815260040161024592919061369e565b919050565b60408051600180825281830190925260609160009190602080830190803683370190505090508281600081518110612699576126996132c9565b602090810291909101810191909152604080517f6d756473746f7265000000000000000000000000000000000000000000000000818401527f486f6f6b730000000000000000000000000000000000000000000000000000006030820152815180820390930183528101905260009061271d90612715906132df565b8360006117f3565b9050610f0361272f8260008451611e11565b612b29565b6000601082901b612480565b600061274f8460ff8516612b3a565b905081516127688260c5811115611a7357611a73613303565b146127bf576127828160c5811115611a7357611a73613303565b82516040517f521b3d3300000000000000000000000000000000000000000000000000000000815260048101929092526024820152604401610245565b60006127cb87876128f8565b905060006127d98686612b66565b90506117e8828286612bba565b60006127f184612734565b6127fb908461359b565b905061280a8686838551612bcf565b60006128178787846124c8565b90506119e58184612c01565b606061282e82612734565b60ff168360ff16101561284e5761284785858585612c0d565b9050610f03565b61284785858585612c6d565b6000806128678460f01c90565b915081600061287586612478565b60ff1611156128a9578284016020015191506128918260c81c90565b61289c90602061341f565b6128a6908261341f565b90505b835181146128f05783516040517f521b3d33000000000000000000000000000000000000000000000000000000008152610245918391600401918252602082015260400190565b509250929050565b60007f86425bff6b57326c7859e89024fe4f238ca327a1ae4a230180dd2f0e88aaa7d9838360405160200161292f939291906136b7565b60408051601f1981840301815291905280516020909101209392505050565b60208304840193506020838161296657612966613688565b06925082156129bf5760208390036000600019600884021c1990506008850281811c91508451811c90508119875416828216178755508183116129aa5750506117ed565b6129b560018761341f565b9550509182019190035b602081106129e857815184556129d660018561341f565b935060209190910190601f19016129bf565b80156117ed576000600019600883021c198554845182169119161785555050505050565b60007f86425bff6b57326c7859e89024fe4f238ca327a1ae4a230180dd2f0e88aaa7d9838360405160200161292f939291906136d6565b604080516001808252818301909252600091829190602080830190803683370190505090508281600081518110612a7c57612a7c6132c9565b602090810291909101810191909152604080517f6d756473746f7265000000000000000000000000000000000000000000000000818401527f736368656d6100000000000000000000000000000000000000000000000000006030820152815180820390930183528101905260009061249690612af8906132df565b836128f8565b606081604051602001612b1391815260200190565b6040516020818303038152906040529050919050565b606060006116778360146000612cc6565b6000612b5283612b4b84600461341f565b6008021b90565b60f81c60c581111561167757611677613303565b600080805b8360ff16811015612bb257612b94612b838683612b3a565b60c5811115611a7357611a73613303565b612b9e908361341f565b915080612baa81613619565b915050612b6b565b509392505050565b60006020820190506117ed848483855161294e565b6000612bdb8585612a0c565b90506000612be7825490565b9050612bf78160ff861685612def565b9091555050505050565b610e2b82600083612bba565b60606000612c1e8360ff8616612b3a565b90506000612c378260c5811115611a7357611a73613303565b90506000612c4588886128f8565b90506000612c538688612b66565b9050612c60828483612ec0565b9998505050505050505050565b60606000612c7a83612734565b612c84908561359b565b90506000612c938787846124c8565b90506000612cae8360ff16612ca88a8a612489565b90611ddf565b9050612cba8282612f18565b98975050505050505050565b60606000612cd48560801c90565b90506fffffffffffffffffffffffffffffffff8516600084612d0c57612cfb8660086135be565b612d0790610100613602565b612d0f565b60005b90506000868381612d2257612d22613688565b049050612d2f8784613736565b15612da25760405162461bcd60e51b815260206004820152603d60248201527f756e7061636b546f41727261793a207061636b65644c656e677468206d75737460448201527f2062652061206d756c7469706c65206f6620656c656d656e7453697a650000006064820152608401610245565b602080820201604051955080860160405250808552600060208601855b83831015612de1578051851c8252600192909201916020909101908901612dbf565b505050505050509392505050565b60008381612dfd8260c81c90565b90506000612e0e878760ff16611ddf565b9050808510612e3257612e218186613602565b612e2b908361341f565b9150612e49565b612e3c8582613602565b612e469083613602565b91505b6000612e568760056135be565b612e6190600761341f565b905078ffffffffffffffffffffffffffffffffffffffffffffffffff841660c884901b1793507fffffffffff0000000000000000000000000000000000000000000000000000006008820290811c19851660d888901b90911c17612cba565b60608267ffffffffffffffff811115612edb57612edb6132b3565b6040519080825280601f01601f191660200182016040528015612f05576020820181803683370190505b50905060208101612bb285858584612521565b606061167783836000612ec0565b60008083601f840112612f3857600080fd5b50813567ffffffffffffffff811115612f5057600080fd5b602083019150836020828501011115612f6857600080fd5b9250929050565b60008060008060608587031215612f8557600080fd5b84359350602085013567ffffffffffffffff80821115612fa457600080fd5b9086019060a08289031215612fb857600080fd5b90935060408601359080821115612fce57600080fd5b50612fdb87828801612f26565b95989497509550505050565b60008060208385031215612ffa57600080fd5b823567ffffffffffffffff81111561301157600080fd5b61301d85828601612f26565b90969095509350505050565b60005b8381101561304457818101518382015260200161302c565b838111156117ed5750506000910152565b6000815180845261306d816020860160208601613029565b601f01601f19169290920160200192915050565b6020815260006116776020830184613055565b80356001600160a01b038116811461265a57600080fd5b600080604083850312156130be57600080fd5b6130c783613094565b91506130d560208401613094565b90509250929050565b6000602082840312156130f057600080fd5b5035919050565b60008060006040848603121561310c57600080fd5b83359250602084013567ffffffffffffffff81111561312a57600080fd5b61313686828701612f26565b9497909650939450505050565b60008083357fffffffffffffffffffffffffffffffffffffffffffffffffffffffffffffffe184360301811261317857600080fd5b83018035915067ffffffffffffffff82111561319357600080fd5b602001915036819003821315612f6857600080fd5b7fffffffff0000000000000000000000000000000000000000000000000000000081358181169160048510156131e85780818660040360031b1b83161692505b505092915050565b8183823760009101908152919050565b6000808585111561321057600080fd5b8386111561321d57600080fd5b5050820193919092039150565b634e487b7160e01b600052601160045260246000fd5b600061ffff80831681851680830382111561325d5761325d61322a565b01949350505050565b600181811c9082168061327a57607f821691505b602082108103610ab157634e487b7160e01b600052602260045260246000fd5b6000602082840312156132ac57600080fd5b5051919050565b634e487b7160e01b600052604160045260246000fd5b634e487b7160e01b600052603260045260246000fd5b80516020808301519190811015610ab15760001960209190910360031b1b16919050565b634e487b7160e01b600052602160045260246000fd5b600081518084526020808501945080840160005b838110156133495781518752958201959082019060010161332d565b509495945050505050565b83815260606020820152600061336d6060830185613319565b9050826040830152949350505050565b60006020828403121561338f57600080fd5b815167ffffffffffffffff808211156133a757600080fd5b818401915084601f8301126133bb57600080fd5b8151818111156133cd576133cd6132b3565b604051601f8201601f19908116603f011681019083821181831017156133f5576133f56132b3565b8160405282815287602084870101111561340e57600080fd5b611c6f836020830160208801613029565b600082198211156134325761343261322a565b500190565b8481526080602082015260006134506080830186613319565b60ff851660408401528281036060840152611c6f8185613055565b8381526060602082015260006134846060830185613319565b905060ff83166040830152949350505050565b60007fffffffffffffffffffffffffffffffffffffffff000000000000000000000000808b60601b168352808a60601b166014840152808960601b1660288401525086151560f81b603c83015285151560f81b603d8301527fffff0000000000000000000000000000000000000000000000000000000000008560f01b16603e8301528360408301528251613533816060850160208701613029565b919091016060019998505050505050505050565b8381526060602082015260006135606060830185613319565b82810360408401526135728185613055565b9695505050505050565b600060ff821660ff81036135925761359261322a565b60010192915050565b600060ff821660ff8416808210156135b5576135b561322a565b90039392505050565b60008160001904831182151516156135d8576135d861322a565b500290565b6060815260006135f06060830186613055565b60208301949094525060400152919050565b6000828210156136145761361461322a565b500390565b6000600019820361362c5761362c61322a565b5060010190565b600066ffffffffffffff80831681851680830382111561325d5761325d61322a565b8481528360208201526080604082015260006136746080830185613319565b905060ff8316606083015295945050505050565b634e487b7160e01b600052601260045260246000fd5b828152604060208201526000610f036040830184613055565b83815282602082015260606040820152600061210d6060830184613319565b8381528260208201526080604082015260006136f56080830184613319565b8281036060840152600681527f6c656e6774680000000000000000000000000000000000000000000000000000602082015260408101915050949350505050565b60008261375357634e487b7160e01b600052601260045260246000fd5b50069056fea26469706673582212202b6f4420baa8fc687dae031aa6f24f938af01388c24985bf049c7db5fab22c1d64736f6c634300080d0033",
    "linkReferences": {}
  },
  "methodIdentifiers": {
    "acceptGame(bytes32)": "e18221cb",
    "checkAndUpdateLimit(uint256,(address,address,address,address,bytes),bytes)": "26e8f949",
    "createGame(address,address)": "a6f979ff",
    "getCounterGameSystemAddress()": "698c1d53",
    "getLimitData(bytes)": "97206a20",
    "increment(bytes32,string)": "fa1bcb1b",
    "oneTimePermission(uint256)": "fa74713c",
    "permissionIdLimitData(uint256)": "ff86308b"
  },
  "id": 130
}