{
  "abi": [
    {
      "inputs": [
        {
          "components": [
            {
              "internalType": "contract IAuthController",
              "name": "authController",
              "type": "address"
            },
            {
              "internalType": "address",
              "name": "client",
              "type": "address"
            },
            {
              "internalType": "address",
              "name": "world",
              "type": "address"
            },
            {
              "internalType": "contract ILimitCheckerSystem",
              "name": "limitChecker",
              "type": "address"
            },
            {
              "internalType": "bytes",
              "name": "limitData",
              "type": "bytes"
            }
          ],
          "internalType": "struct IAccount.PermissionData",
          "name": "_permissionData",
          "type": "tuple"
        },
        {
          "internalType": "bytes",
          "name": "_signature",
          "type": "bytes"
        }
      ],
      "name": "auth",
      "outputs": [
        {
          "internalType": "bool",
          "name": "_authorized",
          "type": "bool"
        }
      ],
      "stateMutability": "pure",
      "type": "function"
    },
    {
      "inputs": [
        {
          "components": [
            {
              "internalType": "contract IAuthController",
              "name": "authController",
              "type": "address"
            },
            {
              "internalType": "address",
              "name": "client",
              "type": "address"
            },
            {
              "internalType": "address",
              "name": "world",
              "type": "address"
            },
            {
              "internalType": "contract ILimitCheckerSystem",
              "name": "limitChecker",
              "type": "address"
            },
            {
              "internalType": "bytes",
              "name": "limitData",
              "type": "bytes"
            }
          ],
          "internalType": "struct IAccount.PermissionData",
          "name": "_permissionData",
          "type": "tuple"
        }
      ],
      "name": "getPermissionDataHash",
      "outputs": [
        {
          "internalType": "bytes32",
          "name": "_permissionDataHash",
          "type": "bytes32"
        }
      ],
      "stateMutability": "view",
      "type": "function"
    }
  ],
  "bytecode": {
    "object": "0x608060405234801561001057600080fd5b5061074d806100206000396000f3fe608060405234801561001057600080fd5b50600436106100365760003560e01c80630998d8de1461003b5780632200034614610063575b600080fd5b61004e6100493660046104ae565b610084565b60405190151581526020015b60405180910390f35b610076610071366004610545565b610136565b60405190815260200161005a565b6000808460405160200161009891906105cf565b60405160208183030381529060405280519060200120905060006100bb82610166565b905060006100ff8287878080601f0160208091040260200160405190810160405280939291908181526020018383808284376000920191909152506101a192505050565b905061011160408801602089016106c4565b73ffffffffffffffffffffffffffffffffffffffff9182169116149695505050505050565b60008160405160200161014991906105cf565b604051602081830303815290604052805190602001209050919050565b6040517f19457468657265756d205369676e6564204d6573736167653a0a3332000000006020820152603c8101829052600090605c01610149565b60008060006101b085856101c5565b915091506101bd8161020a565b509392505050565b60008082516041036101fb5760208301516040840151606085015160001a6101ef878285856103c5565b94509450505050610203565b506000905060025b9250929050565b600081600481111561021e5761021e6106e8565b036102265750565b600181600481111561023a5761023a6106e8565b036102a6576040517f08c379a000000000000000000000000000000000000000000000000000000000815260206004820152601860248201527f45434453413a20696e76616c6964207369676e6174757265000000000000000060448201526064015b60405180910390fd5b60028160048111156102ba576102ba6106e8565b03610321576040517f08c379a000000000000000000000000000000000000000000000000000000000815260206004820152601f60248201527f45434453413a20696e76616c6964207369676e6174757265206c656e67746800604482015260640161029d565b6003816004811115610335576103356106e8565b036103c2576040517f08c379a000000000000000000000000000000000000000000000000000000000815260206004820152602260248201527f45434453413a20696e76616c6964207369676e6174757265202773272076616c60448201527f7565000000000000000000000000000000000000000000000000000000000000606482015260840161029d565b50565b6000807f7fffffffffffffffffffffffffffffff5d576e7357a4501ddfe92f46681b20a08311156103fc575060009050600361048d565b6040805160008082526020820180845289905260ff881692820192909252606081018690526080810185905260019060a0016020604051602081039080840390855afa158015610450573d6000803e3d6000fd5b5050604051601f19015191505073ffffffffffffffffffffffffffffffffffffffff81166104865760006001925092505061048d565b9150600090505b94509492505050565b600060a082840312156104a857600080fd5b50919050565b6000806000604084860312156104c357600080fd5b833567ffffffffffffffff808211156104db57600080fd5b6104e787838801610496565b945060208601359150808211156104fd57600080fd5b818601915086601f83011261051157600080fd5b81358181111561052057600080fd5b87602082850101111561053257600080fd5b6020830194508093505050509250925092565b60006020828403121561055757600080fd5b813567ffffffffffffffff81111561056e57600080fd5b61057a84828501610496565b949350505050565b73ffffffffffffffffffffffffffffffffffffffff811681146103c257600080fd5b818352818160208501375060006020828401015260006020601f19601f840116840101905092915050565b60208152600082356105e081610582565b73ffffffffffffffffffffffffffffffffffffffff80821660208501526020850135915061060d82610582565b80821660408501526040850135915061062582610582565b80821660608501526060850135915061063d82610582565b8082166080850152505060808301357fffffffffffffffffffffffffffffffffffffffffffffffffffffffffffffffe184360301811261067c57600080fd5b8301803567ffffffffffffffff81111561069557600080fd5b8036038513156106a457600080fd5b60a0808501526106bb60c0850182602085016105a4565b95945050505050565b6000602082840312156106d657600080fd5b81356106e181610582565b9392505050565b7f4e487b7100000000000000000000000000000000000000000000000000000000600052602160045260246000fdfea26469706673582212201bea23230fb460d234109eb6acadf9980b61035e9ddace8eb8d262f7d905f86864736f6c634300080d0033",
    "linkReferences": {}
  },
  "methodIdentifiers": {
    "auth((address,address,address,address,bytes),bytes)": "0998d8de",
    "getPermissionDataHash((address,address,address,address,bytes))": "22000346"
  },
  "id": 101
}