{
  "abi": [
    {
      "inputs": [
        {
          "components": [
            {
              "internalType": "contract IAuthController",
              "name": "authController",
              "type": "address"
            },
            {
              "internalType": "address",
              "name": "client",
              "type": "address"
            },
            {
              "internalType": "address",
              "name": "world",
              "type": "address"
            },
            {
              "internalType": "contract ILimitCheckerSystem",
              "name": "limitChecker",
              "type": "address"
            },
            {
              "internalType": "bytes",
              "name": "limitData",
              "type": "bytes"
            }
          ],
          "internalType": "struct IAccount.PermissionData",
          "name": "_permissionData",
          "type": "tuple"
        },
        {
          "internalType": "bytes",
          "name": "_signature",
          "type": "bytes"
        }
      ],
      "name": "auth",
      "outputs": [
        {
          "internalType": "bool",
          "name": "_authorized",
          "type": "bool"
        }
      ],
      "stateMutability": "pure",
      "type": "function"
    },
    {
      "inputs": [
        {
          "components": [
            {
              "internalType": "contract IAuthController",
              "name": "authController",
              "type": "address"
            },
            {
              "internalType": "address",
              "name": "client",
              "type": "address"
            },
            {
              "internalType": "address",
              "name": "world",
              "type": "address"
            },
            {
              "internalType": "contract ILimitCheckerSystem",
              "name": "limitChecker",
              "type": "address"
            },
            {
              "internalType": "bytes",
              "name": "limitData",
              "type": "bytes"
            }
          ],
          "internalType": "struct IAccount.PermissionData",
          "name": "_permissionData",
          "type": "tuple"
        }
      ],
      "name": "getPermissionDataHash",
      "outputs": [
        {
          "internalType": "bytes32",
          "name": "_permissionDataHash",
          "type": "bytes32"
        }
      ],
      "stateMutability": "view",
      "type": "function"
    }
  ],
  "bytecode": {
    "object": "0x608060405234801561001057600080fd5b5061033d806100206000396000f3fe608060405234801561001057600080fd5b50600436106100365760003560e01c80630998d8de1461003b5780632200034614610067575b600080fd5b6100526100493660046100d0565b60019392505050565b60405190151581526020015b60405180910390f35b61007a610075366004610167565b610088565b60405190815260200161005e565b60008160405160200161009b9190610212565b604051602081830303815290604052805190602001209050919050565b600060a082840312156100ca57600080fd5b50919050565b6000806000604084860312156100e557600080fd5b833567ffffffffffffffff808211156100fd57600080fd5b610109878388016100b8565b9450602086013591508082111561011f57600080fd5b818601915086601f83011261013357600080fd5b81358181111561014257600080fd5b87602082850101111561015457600080fd5b6020830194508093505050509250925092565b60006020828403121561017957600080fd5b813567ffffffffffffffff81111561019057600080fd5b61019c848285016100b8565b949350505050565b73ffffffffffffffffffffffffffffffffffffffff811681146101c657600080fd5b50565b8183528181602085013750600060208284010152600060207fffffffffffffffffffffffffffffffffffffffffffffffffffffffffffffffe0601f840116840101905092915050565b6020815260008235610223816101a4565b73ffffffffffffffffffffffffffffffffffffffff808216602085015260208501359150610250826101a4565b808216604085015260408501359150610268826101a4565b808216606085015260608501359150610280826101a4565b8082166080850152505060808301357fffffffffffffffffffffffffffffffffffffffffffffffffffffffffffffffe18436030181126102bf57600080fd5b8301803567ffffffffffffffff8111156102d857600080fd5b8036038513156102e757600080fd5b60a0808501526102fe60c0850182602085016101c9565b9594505050505056fea26469706673582212201ebe930b7b9d38bce405afc84300e4ba66806eb73cfaae9b766b6c6060162b0864736f6c634300080d0033",
    "linkReferences": {}
  },
  "methodIdentifiers": {
    "auth((address,address,address,address,bytes),bytes)": "0998d8de",
    "getPermissionDataHash((address,address,address,address,bytes))": "22000346"
  },
  "id": 121
}