{
  "abi": [
    {
      "inputs": [
        {
          "internalType": "address",
          "name": "_accountOwner",
          "type": "address"
        },
        {
          "components": [
            {
              "internalType": "contract IAuthController",
              "name": "authController",
              "type": "address"
            },
            {
              "internalType": "address",
              "name": "client",
              "type": "address"
            },
            {
              "internalType": "address",
              "name": "world",
              "type": "address"
            },
            {
              "internalType": "contract ILimitCheckerSystem",
              "name": "limitChecker",
              "type": "address"
            },
            {
              "internalType": "bytes",
              "name": "limitData",
              "type": "bytes"
            }
          ],
          "internalType": "struct IAccount.PermissionData",
          "name": "_permissionData",
          "type": "tuple"
        },
        {
          "internalType": "bytes",
          "name": "_signature",
          "type": "bytes"
        }
      ],
      "name": "auth",
      "outputs": [
        {
          "internalType": "bool",
          "name": "_authorized",
          "type": "bool"
        }
      ],
      "stateMutability": "pure",
      "type": "function"
    },
    {
      "inputs": [
        {
          "components": [
            {
              "internalType": "contract IAuthController",
              "name": "authController",
              "type": "address"
            },
            {
              "internalType": "address",
              "name": "client",
              "type": "address"
            },
            {
              "internalType": "address",
              "name": "world",
              "type": "address"
            },
            {
              "internalType": "contract ILimitCheckerSystem",
              "name": "limitChecker",
              "type": "address"
            },
            {
              "internalType": "bytes",
              "name": "limitData",
              "type": "bytes"
            }
          ],
          "internalType": "struct IAccount.PermissionData",
          "name": "_permissionData",
          "type": "tuple"
        }
      ],
      "name": "getPermissionDataHash",
      "outputs": [
        {
          "internalType": "bytes32",
          "name": "_permissionDataHash",
          "type": "bytes32"
        }
      ],
      "stateMutability": "pure",
      "type": "function"
    }
  ],
  "bytecode": {
    "object": "0x608060405234801561001057600080fd5b506106df806100206000396000f3fe608060405234801561001057600080fd5b50600436106100365760003560e01c8063220003461461003b578063dcc2072e14610061575b600080fd5b61004e610049366004610457565b610084565b6040519081526020015b60405180910390f35b61007461006f3660046104b6565b6100b4565b6040519015158152602001610058565b6000816040516020016100979190610585565b604051602081830303815290604052805190602001209050919050565b600080846040516020016100c89190610585565b60405160208183030381529060405280519060200120905060006101228286868080601f01602080910402602001604051908101604052809392919081815260200183838082843760009201919091525061014a92505050565b73ffffffffffffffffffffffffffffffffffffffff9081169716969096149695505050505050565b6000806000610159858561016e565b91509150610166816101b3565b509392505050565b60008082516041036101a45760208301516040840151606085015160001a6101988782858561036e565b945094505050506101ac565b506000905060025b9250929050565b60008160048111156101c7576101c761067a565b036101cf5750565b60018160048111156101e3576101e361067a565b0361024f576040517f08c379a000000000000000000000000000000000000000000000000000000000815260206004820152601860248201527f45434453413a20696e76616c6964207369676e6174757265000000000000000060448201526064015b60405180910390fd5b60028160048111156102635761026361067a565b036102ca576040517f08c379a000000000000000000000000000000000000000000000000000000000815260206004820152601f60248201527f45434453413a20696e76616c6964207369676e6174757265206c656e677468006044820152606401610246565b60038160048111156102de576102de61067a565b0361036b576040517f08c379a000000000000000000000000000000000000000000000000000000000815260206004820152602260248201527f45434453413a20696e76616c6964207369676e6174757265202773272076616c60448201527f75650000000000000000000000000000000000000000000000000000000000006064820152608401610246565b50565b6000807f7fffffffffffffffffffffffffffffff5d576e7357a4501ddfe92f46681b20a08311156103a55750600090506003610436565b6040805160008082526020820180845289905260ff881692820192909252606081018690526080810185905260019060a0016020604051602081039080840390855afa1580156103f9573d6000803e3d6000fd5b5050604051601f19015191505073ffffffffffffffffffffffffffffffffffffffff811661042f57600060019250925050610436565b9150600090505b94509492505050565b600060a0828403121561045157600080fd5b50919050565b60006020828403121561046957600080fd5b813567ffffffffffffffff81111561048057600080fd5b61048c8482850161043f565b949350505050565b73ffffffffffffffffffffffffffffffffffffffff8116811461036b57600080fd5b600080600080606085870312156104cc57600080fd5b84356104d781610494565b9350602085013567ffffffffffffffff808211156104f457600080fd5b6105008883890161043f565b9450604087013591508082111561051657600080fd5b818701915087601f83011261052a57600080fd5b81358181111561053957600080fd5b88602082850101111561054b57600080fd5b95989497505060200194505050565b818352818160208501375060006020828401015260006020601f19601f840116840101905092915050565b602081526000823561059681610494565b73ffffffffffffffffffffffffffffffffffffffff8082166020850152602085013591506105c382610494565b8082166040850152604085013591506105db82610494565b8082166060850152606085013591506105f382610494565b8082166080850152505060808301357fffffffffffffffffffffffffffffffffffffffffffffffffffffffffffffffe184360301811261063257600080fd5b8301803567ffffffffffffffff81111561064b57600080fd5b80360385131561065a57600080fd5b60a08085015261067160c08501826020850161055a565b95945050505050565b7f4e487b7100000000000000000000000000000000000000000000000000000000600052602160045260246000fdfea26469706673582212206502209d0a6dd438d922298bb4d307c3ca0e44ea1921e97be40f5f2a14c24dd164736f6c634300080d0033",
    "linkReferences": {}
  },
  "methodIdentifiers": {
    "auth(address,(address,address,address,address,bytes),bytes)": "dcc2072e",
    "getPermissionDataHash((address,address,address,address,bytes))": "22000346"
  },
  "id": 121
}