{
  "abi": [
    {
      "inputs": [
        {
          "internalType": "address",
          "name": "_owner",
          "type": "address"
        }
      ],
      "stateMutability": "nonpayable",
      "type": "constructor"
    },
    {
      "inputs": [
        {
          "components": [
            {
              "internalType": "contract IAuthController",
              "name": "authController",
              "type": "address"
            },
            {
              "internalType": "address",
              "name": "client",
              "type": "address"
            },
            {
              "internalType": "address",
              "name": "world",
              "type": "address"
            },
            {
              "internalType": "contract ILimitCheckerSystem",
              "name": "limitChecker",
              "type": "address"
            },
            {
              "internalType": "bytes",
              "name": "limitData",
              "type": "bytes"
            }
          ],
          "internalType": "struct IAccount.PermissionData",
          "name": "_permissionData",
          "type": "tuple"
        },
        {
          "internalType": "bytes",
          "name": "_signature",
          "type": "bytes"
        }
      ],
      "name": "auth",
      "outputs": [
        {
          "internalType": "uint256",
          "name": "_permissionId",
          "type": "uint256"
        }
      ],
      "stateMutability": "nonpayable",
      "type": "function"
    },
    {
      "inputs": [
        {
          "internalType": "address",
          "name": "_newOwner",
          "type": "address"
        }
      ],
      "name": "changeOwner",
      "outputs": [],
      "stateMutability": "nonpayable",
      "type": "function"
    },
    {
      "inputs": [
        {
          "internalType": "uint256",
          "name": "_permissionId",
          "type": "uint256"
        },
        {
          "internalType": "bytes",
          "name": "_data",
          "type": "bytes"
        }
      ],
      "name": "execute",
      "outputs": [
        {
          "internalType": "bytes",
          "name": "_returnData",
          "type": "bytes"
        }
      ],
      "stateMutability": "nonpayable",
      "type": "function"
    },
    {
      "inputs": [],
      "name": "owner",
      "outputs": [
        {
          "internalType": "address",
          "name": "",
          "type": "address"
        }
      ],
      "stateMutability": "view",
      "type": "function"
    },
    {
      "inputs": [
        {
          "internalType": "uint256",
          "name": "",
          "type": "uint256"
        }
      ],
      "name": "permissionData",
      "outputs": [
        {
          "internalType": "contract IAuthController",
          "name": "authController",
          "type": "address"
        },
        {
          "internalType": "address",
          "name": "client",
          "type": "address"
        },
        {
          "internalType": "address",
          "name": "world",
          "type": "address"
        },
        {
          "internalType": "contract ILimitCheckerSystem",
          "name": "limitChecker",
          "type": "address"
        },
        {
          "internalType": "bytes",
          "name": "limitData",
          "type": "bytes"
        }
      ],
      "stateMutability": "view",
      "type": "function"
    },
    {
      "inputs": [
        {
          "internalType": "uint256",
          "name": "_permissionId",
          "type": "uint256"
        }
      ],
      "name": "revoke",
      "outputs": [],
      "stateMutability": "nonpayable",
      "type": "function"
    }
  ],
  "bytecode": {
    "object": "0x608060405234801561001057600080fd5b50604051610fa0380380610fa083398101604081905261002f91610054565b600080546001600160a01b0319166001600160a01b0392909216919091179055610084565b60006020828403121561006657600080fd5b81516001600160a01b038116811461007d57600080fd5b9392505050565b610f0d806100936000396000f3fe608060405234801561001057600080fd5b50600436106100725760003560e01c80638da5cb5b116100505780638da5cb5b146100d2578063a6f9dae1146100fd578063fe4f707c1461011057600080fd5b80630998d8de1461007757806320c5429b1461009d57806359efcb15146100b2575b600080fd5b61008a61008536600461087e565b610134565b6040519081526020015b60405180910390f35b6100b06100ab3660046108ef565b610267565b005b6100c56100c0366004610908565b610346565b6040516100949190610994565b6000546100e5906001600160a01b031681565b6040516001600160a01b039091168152602001610094565b6100b061010b3660046109c3565b610665565b61012361011e3660046108ef565b610714565b6040516100949594939291906109e0565b60008061014460208601866109c3565b6001600160a01b0316630998d8de8686866040518463ffffffff1660e01b815260040161017393929190610a52565b602060405180830381865afa158015610190573d6000803e3d6000fd5b505050506040513d601f19601f820116820180604052508101906101b49190610b2e565b90508061022d5760405162461bcd60e51b8152602060048201526024808201527f4163636f756e743a3a617574683a20696e76616c696420617574686f72697a6160448201527f72696f6e0000000000000000000000000000000000000000000000000000000060648201526084015b60405180910390fd5b6001805461023a91610b50565b60018190556000818152600260205260409020909250859061025c8282610d20565b905050509392505050565b6000546001600160a01b031633146102e75760405162461bcd60e51b815260206004820152602660248201527f4163636f756e743a3a7265766f6b653a206f6e6c79206f776e65722063616e2060448201527f7265766f6b6500000000000000000000000000000000000000000000000000006064820152608401610224565b60008181526002602081905260408220805473ffffffffffffffffffffffffffffffffffffffff199081168255600182018054821690559181018054831690556003810180549092169091559061034160048301826107df565b505050565b6000838152600260208181526040808420815160a08101835281546001600160a01b039081168252600183015481169482019490945293810154831691840191909152600381015490911660608381019190915260048201805491949392916080840191906103b490610bbe565b80601f01602080910402602001604051908101604052809291908181526020018280546103e090610bbe565b801561042d5780601f106104025761010080835404028352916020019161042d565b820191906000526020600020905b81548152906001019060200180831161041057829003601f168201915b5050505050815250509050336001600160a01b031681602001516001600160a01b03161461049d5760405162461bcd60e51b815260206004820181905260248201527f4163636f756e743a3a657865637574653a20696e76616c696420636c69656e746044820152606401610224565b60608101516040517f26e8f9490000000000000000000000000000000000000000000000000000000081526000916001600160a01b0316906326e8f949906104ef90899086908a908a90600401610e56565b6020604051808303816000875af115801561050e573d6000803e3d6000fd5b505050506040513d601f19601f820116820180604052508101906105329190610b2e565b9050806105815760405162461bcd60e51b815260206004820152601d60248201527f4163636f756e743a3a657865637574653a206e6f7420616c6c6f7765640000006044820152606401610224565b600082604001516001600160a01b031686866040516105a1929190610ec7565b6000604051808303816000865af19150503d80600081146105de576040519150601f19603f3d011682016040523d82523d6000602084013e6105e3565b606091505b50945090508061065b5760405162461bcd60e51b815260206004820152602360248201527f4163636f756e743a3a657865637574653a20776f726c642063616c6c2066616960448201527f6c656400000000000000000000000000000000000000000000000000000000006064820152608401610224565b5050509392505050565b6000546001600160a01b031633146106e55760405162461bcd60e51b815260206004820152603160248201527f4163636f756e743a3a6368616e67654f776e65723a206f6e6c79206f776e657260448201527f2063616e206368616e6765206f776e65720000000000000000000000000000006064820152608401610224565b6000805473ffffffffffffffffffffffffffffffffffffffff19166001600160a01b0392909216919091179055565b6002602081905260009182526040909120805460018201549282015460038301546004840180546001600160a01b039485169685169593851694909216929161075c90610bbe565b80601f016020809104026020016040519081016040528092919081815260200182805461078890610bbe565b80156107d55780601f106107aa576101008083540402835291602001916107d5565b820191906000526020600020905b8154815290600101906020018083116107b857829003601f168201915b5050505050905085565b5080546107eb90610bbe565b6000825580601f106107fb575050565b601f016020900490600052602060002090810190610819919061081c565b50565b5b80821115610831576000815560010161081d565b5090565b60008083601f84011261084757600080fd5b50813567ffffffffffffffff81111561085f57600080fd5b60208301915083602082850101111561087757600080fd5b9250929050565b60008060006040848603121561089357600080fd5b833567ffffffffffffffff808211156108ab57600080fd5b9085019060a082880312156108bf57600080fd5b909350602085013590808211156108d557600080fd5b506108e286828701610835565b9497909650939450505050565b60006020828403121561090157600080fd5b5035919050565b60008060006040848603121561091d57600080fd5b83359250602084013567ffffffffffffffff81111561093b57600080fd5b6108e286828701610835565b6000815180845260005b8181101561096d57602081850181015186830182015201610951565b8181111561097f576000602083870101525b50601f01601f19169290920160200192915050565b6020815260006109a76020830184610947565b9392505050565b6001600160a01b038116811461081957600080fd5b6000602082840312156109d557600080fd5b81356109a7816109ae565b60006001600160a01b0380881683528087166020840152808616604084015280851660608401525060a06080830152610a1c60a0830184610947565b979650505050505050565b818352818160208501375060006020828401015260006020601f19601f840116840101905092915050565b6040815260008435610a63816109ae565b6001600160a01b039081166040840152602086013590610a82826109ae565b9081166060840152604086013590610a99826109ae565b9081166080840152606086013590610ab0826109ae565b1660a0830152608085013536869003601e19018112610ace57600080fd5b8501803567ffffffffffffffff811115610ae757600080fd5b803603871315610af657600080fd5b60a060c0850152610b0e60e085018260208501610a27565b9150508281036020840152610b24818587610a27565b9695505050505050565b600060208284031215610b4057600080fd5b815180151581146109a757600080fd5b60008219821115610b8a577f4e487b7100000000000000000000000000000000000000000000000000000000600052601160045260246000fd5b500190565b7f4e487b7100000000000000000000000000000000000000000000000000000000600052604160045260246000fd5b600181811c90821680610bd257607f821691505b602082108103610c0b577f4e487b7100000000000000000000000000000000000000000000000000000000600052602260045260246000fd5b50919050565b601f82111561034157600081815260208120601f850160051c81016020861015610c385750805b601f850160051c820191505b81811015610c5757828155600101610c44565b505050505050565b67ffffffffffffffff831115610c7757610c77610b8f565b610c8b83610c858354610bbe565b83610c11565b6000601f841160018114610cbf5760008515610ca75750838201355b600019600387901b1c1916600186901b178355610d19565b600083815260209020601f19861690835b82811015610cf05786850135825560209485019460019092019101610cd0565b5086821015610d0d5760001960f88860031b161c19848701351681555b505060018560011b0183555b5050505050565b8135610d2b816109ae565b815473ffffffffffffffffffffffffffffffffffffffff19166001600160a01b038216178255506020820135610d60816109ae565b60018201805473ffffffffffffffffffffffffffffffffffffffff19166001600160a01b038316179055506040820135610d99816109ae565b60028201805473ffffffffffffffffffffffffffffffffffffffff19166001600160a01b038316179055506060820135610dd2816109ae565b60038201805473ffffffffffffffffffffffffffffffffffffffff19166001600160a01b038316179055506080820135601e19833603018112610e1457600080fd5b8201803567ffffffffffffffff811115610e2d57600080fd5b602082019150803603821315610e4257600080fd5b610e50818360048601610c5f565b50505050565b8481526060602082015260006001600160a01b038086511660608401528060208701511660808401528060408701511660a08401528060608701511660c084015250608085015160a060e0840152610eb2610100840182610947565b90508281036040840152610a1c818587610a27565b818382376000910190815291905056fea26469706673582212203ca1ac2e64bb574603fcac1e6ac16f5201fdd001c8c60684616afdb8636bd24864736f6c634300080d0033",
    "linkReferences": {}
  },
  "methodIdentifiers": {
    "auth((address,address,address,address,bytes),bytes)": "0998d8de",
    "changeOwner(address)": "a6f9dae1",
    "execute(uint256,bytes)": "59efcb15",
    "owner()": "8da5cb5b",
    "permissionData(uint256)": "fe4f707c",
    "revoke(uint256)": "20c5429b"
  },
  "id": 119
}