{
  "abi": [
    {
      "inputs": [
        {
          "internalType": "address",
          "name": "_owner",
          "type": "address"
        }
      ],
      "stateMutability": "nonpayable",
      "type": "constructor"
    },
    {
      "inputs": [
        {
          "components": [
            {
              "internalType": "contract IAuthController",
              "name": "authController",
              "type": "address"
            },
            {
              "internalType": "address",
              "name": "client",
              "type": "address"
            },
            {
              "internalType": "address",
              "name": "world",
              "type": "address"
            },
            {
              "internalType": "address",
              "name": "system",
              "type": "address"
            },
            {
              "internalType": "contract ILimitCheckerSystem",
              "name": "limitChecker",
              "type": "address"
            },
            {
              "internalType": "bytes",
              "name": "limitData",
              "type": "bytes"
            }
          ],
          "internalType": "struct IAccount.PermissionData",
          "name": "_permissionData",
          "type": "tuple"
        },
        {
          "internalType": "bytes",
          "name": "_signature",
          "type": "bytes"
        }
      ],
      "name": "auth",
      "outputs": [
        {
          "internalType": "uint256",
          "name": "_permissionId",
          "type": "uint256"
        }
      ],
      "stateMutability": "nonpayable",
      "type": "function"
    },
    {
      "inputs": [
        {
          "internalType": "address",
          "name": "_newOwner",
          "type": "address"
        }
      ],
      "name": "changeOwner",
      "outputs": [],
      "stateMutability": "nonpayable",
      "type": "function"
    },
    {
      "inputs": [
        {
          "internalType": "uint256",
          "name": "_permissionId",
          "type": "uint256"
        },
        {
          "internalType": "bytes",
          "name": "_data",
          "type": "bytes"
        }
      ],
      "name": "execute",
      "outputs": [
        {
          "internalType": "bytes",
          "name": "_returnData",
          "type": "bytes"
        }
      ],
      "stateMutability": "nonpayable",
      "type": "function"
    },
    {
      "inputs": [],
      "name": "owner",
      "outputs": [
        {
          "internalType": "address",
          "name": "",
          "type": "address"
        }
      ],
      "stateMutability": "view",
      "type": "function"
    },
    {
      "inputs": [
        {
          "internalType": "uint256",
          "name": "",
          "type": "uint256"
        }
      ],
      "name": "permissionData",
      "outputs": [
        {
          "internalType": "contract IAuthController",
          "name": "authController",
          "type": "address"
        },
        {
          "internalType": "address",
          "name": "client",
          "type": "address"
        },
        {
          "internalType": "address",
          "name": "world",
          "type": "address"
        },
        {
          "internalType": "address",
          "name": "system",
          "type": "address"
        },
        {
          "internalType": "contract ILimitCheckerSystem",
          "name": "limitChecker",
          "type": "address"
        },
        {
          "internalType": "bytes",
          "name": "limitData",
          "type": "bytes"
        }
      ],
      "stateMutability": "view",
      "type": "function"
    },
    {
      "inputs": [
        {
          "internalType": "uint256",
          "name": "_permissionId",
          "type": "uint256"
        }
      ],
      "name": "revoke",
      "outputs": [],
      "stateMutability": "nonpayable",
      "type": "function"
    }
  ],
  "bytecode": {
    "object": "0x608060405234801561001057600080fd5b5060405161105d38038061105d83398101604081905261002f91610054565b600080546001600160a01b0319166001600160a01b0392909216919091179055610084565b60006020828403121561006657600080fd5b81516001600160a01b038116811461007d57600080fd5b9392505050565b610fca806100936000396000f3fe608060405234801561001057600080fd5b50600436106100725760003560e01c80638da5cb5b116100505780638da5cb5b146100d2578063a6f9dae1146100fd578063fe4f707c1461011057600080fd5b806320c5429b146100775780635159815b1461008c57806359efcb15146100b2575b600080fd5b61008a610085366004610856565b610135565b005b61009f61009a3660046108b8565b610223565b6040519081526020015b60405180910390f35b6100c56100c0366004610929565b610353565b6040516100a991906109b5565b6000546100e5906001600160a01b031681565b6040516001600160a01b0390911681526020016100a9565b61008a61010b3660046109f4565b61067d565b61012361011e366004610856565b61072c565b6040516100a996959493929190610a11565b6000546001600160a01b031633146101ba5760405162461bcd60e51b815260206004820152602660248201527f4163636f756e743a3a7265766f6b653a206f6e6c79206f776e65722063616e2060448201527f7265766f6b65000000000000000000000000000000000000000000000000000060648201526084015b60405180910390fd5b60008181526002602081905260408220805473ffffffffffffffffffffffffffffffffffffffff19908116825560018201805482169055918101805483169055600381018054831690556004810180549092169091559061021e6005830182610800565b505050565b60008061023360208601866109f4565b6001600160a01b0316635159815b8686866040518463ffffffff1660e01b815260040161026293929190610ad2565b602060405180830381865afa15801561027f573d6000803e3d6000fd5b505050506040513d601f19601f820116820180604052508101906102a39190610b98565b9050806103175760405162461bcd60e51b8152602060048201526024808201527f4163636f756e743a3a617574683a20696e76616c696420617574686f72697a6160448201527f72696f6e0000000000000000000000000000000000000000000000000000000060648201526084016101b1565b6001805490600061032783610bba565b90915550600081815260026020526040902090925085906103488282610d8c565b905050509392505050565b6000838152600260208181526040808420815160c08101835281546001600160a01b03908116825260018301548116948201949094529381015483169184019190915260038101548216606084810191909152600482015490921660808401526005810180549294939260a0840191906103cc90610c2a565b80601f01602080910402602001604051908101604052809291908181526020018280546103f890610c2a565b80156104455780601f1061041a57610100808354040283529160200191610445565b820191906000526020600020905b81548152906001019060200180831161042857829003601f168201915b5050505050815250509050336001600160a01b031681602001516001600160a01b0316146104b55760405162461bcd60e51b815260206004820181905260248201527f4163636f756e743a3a657865637574653a20696e76616c696420636c69656e7460448201526064016101b1565b60808101516040517fdcca5d000000000000000000000000000000000000000000000000000000000081526000916001600160a01b03169063dcca5d009061050790899086908a908a90600401610efb565b6020604051808303816000875af1158015610526573d6000803e3d6000fd5b505050506040513d601f19601f8201168201806040525081019061054a9190610b98565b9050806105995760405162461bcd60e51b815260206004820152601d60248201527f4163636f756e743a3a657865637574653a206e6f7420616c6c6f77656400000060448201526064016101b1565b600082604001516001600160a01b031686866040516105b9929190610f84565b6000604051808303816000865af19150503d80600081146105f6576040519150601f19603f3d011682016040523d82523d6000602084013e6105fb565b606091505b5094509050806106735760405162461bcd60e51b815260206004820152602360248201527f4163636f756e743a3a657865637574653a20776f726c642063616c6c2066616960448201527f6c6564000000000000000000000000000000000000000000000000000000000060648201526084016101b1565b5050509392505050565b6000546001600160a01b031633146106fd5760405162461bcd60e51b815260206004820152603160248201527f4163636f756e743a3a6368616e67654f776e65723a206f6e6c79206f776e657260448201527f2063616e206368616e6765206f776e657200000000000000000000000000000060648201526084016101b1565b6000805473ffffffffffffffffffffffffffffffffffffffff19166001600160a01b0392909216919091179055565b60026020819052600091825260409091208054600182015492820154600383015460048401546005850180546001600160a01b03958616978616969486169593841694929093169261077d90610c2a565b80601f01602080910402602001604051908101604052809291908181526020018280546107a990610c2a565b80156107f65780601f106107cb576101008083540402835291602001916107f6565b820191906000526020600020905b8154815290600101906020018083116107d957829003601f168201915b5050505050905086565b50805461080c90610c2a565b6000825580601f1061081c575050565b601f01602090049060005260206000209081019061083a919061083d565b50565b5b80821115610852576000815560010161083e565b5090565b60006020828403121561086857600080fd5b5035919050565b60008083601f84011261088157600080fd5b50813567ffffffffffffffff81111561089957600080fd5b6020830191508360208285010111156108b157600080fd5b9250929050565b6000806000604084860312156108cd57600080fd5b833567ffffffffffffffff808211156108e557600080fd5b9085019060c082880312156108f957600080fd5b9093506020850135908082111561090f57600080fd5b5061091c8682870161086f565b9497909650939450505050565b60008060006040848603121561093e57600080fd5b83359250602084013567ffffffffffffffff81111561095c57600080fd5b61091c8682870161086f565b6000815180845260005b8181101561098e57602081850181015186830182015201610972565b818111156109a0576000602083870101525b50601f01601f19169290920160200192915050565b6020815260006109c86020830184610968565b9392505050565b6001600160a01b038116811461083a57600080fd5b80356109ef816109cf565b919050565b600060208284031215610a0657600080fd5b81356109c8816109cf565b60006001600160a01b03808916835280881660208401528087166040840152808616606084015280851660808401525060c060a0830152610a5560c0830184610968565b98975050505050505050565b6000808335601e19843603018112610a7857600080fd5b830160208101925035905067ffffffffffffffff811115610a9857600080fd5b8036038313156108b157600080fd5b818352818160208501375060006020828401015260006020601f19601f840116840101905092915050565b6040815260008435610ae3816109cf565b6001600160a01b039081166040840152602086013590610b02826109cf565b9081166060840152604086013590610b19826109cf565b1660808301526060850135610b2d816109cf565b6001600160a01b031660a0830152610b47608086016109e4565b6001600160a01b031660c0830152610b6260a0860186610a61565b60c060e0850152610b7861010085018284610aa7565b9150508281036020840152610b8e818587610aa7565b9695505050505050565b600060208284031215610baa57600080fd5b815180151581146109c857600080fd5b60006000198203610bf4577f4e487b7100000000000000000000000000000000000000000000000000000000600052601160045260246000fd5b5060010190565b7f4e487b7100000000000000000000000000000000000000000000000000000000600052604160045260246000fd5b600181811c90821680610c3e57607f821691505b602082108103610c77577f4e487b7100000000000000000000000000000000000000000000000000000000600052602260045260246000fd5b50919050565b601f82111561021e57600081815260208120601f850160051c81016020861015610ca45750805b601f850160051c820191505b81811015610cc357828155600101610cb0565b505050505050565b67ffffffffffffffff831115610ce357610ce3610bfb565b610cf783610cf18354610c2a565b83610c7d565b6000601f841160018114610d2b5760008515610d135750838201355b600019600387901b1c1916600186901b178355610d85565b600083815260209020601f19861690835b82811015610d5c5786850135825560209485019460019092019101610d3c565b5086821015610d795760001960f88860031b161c19848701351681555b505060018560011b0183555b5050505050565b8135610d97816109cf565b815473ffffffffffffffffffffffffffffffffffffffff19166001600160a01b038216178255506020820135610dcc816109cf565b60018201805473ffffffffffffffffffffffffffffffffffffffff19166001600160a01b038316179055506040820135610e05816109cf565b60028201805473ffffffffffffffffffffffffffffffffffffffff19166001600160a01b038316179055506060820135610e3e816109cf565b60038201805473ffffffffffffffffffffffffffffffffffffffff19166001600160a01b038316179055506080820135610e77816109cf565b60048201805473ffffffffffffffffffffffffffffffffffffffff19166001600160a01b0383161790555060a0820135601e19833603018112610eb957600080fd5b8201803567ffffffffffffffff811115610ed257600080fd5b602082019150803603821315610ee757600080fd5b610ef5818360058601610ccb565b50505050565b8481526060602082015260006001600160a01b038086511660608401528060208701511660808401528060408701511660a08401528060608701511660c08401528060808701511660e08401525060a085015160c0610100840152610f64610120840182610968565b90508281036040840152610f79818587610aa7565b979650505050505050565b818382376000910190815291905056fea26469706673582212206d4ad39914a878070e537a5c884d83a771f789eab511ddf1ad0f334c8cc4819e64736f6c634300080d0033",
    "linkReferences": {}
  },
  "methodIdentifiers": {
    "auth((address,address,address,address,address,bytes),bytes)": "5159815b",
    "changeOwner(address)": "a6f9dae1",
    "execute(uint256,bytes)": "59efcb15",
    "owner()": "8da5cb5b",
    "permissionData(uint256)": "fe4f707c",
    "revoke(uint256)": "20c5429b"
  },
  "id": 99
}